{
  "contractName": "RockPaperScissors",
  "abi": [
    {
      "constant": false,
      "inputs": [
        {
          "name": "newState",
          "type": "uint8"
        }
      ],
      "name": "setState",
      "outputs": [],
      "payable": false,
      "stateMutability": "nonpayable",
      "type": "function"
    },
    {
      "constant": true,
      "inputs": [
        {
          "name": "",
          "type": "bytes32"
        }
      ],
      "name": "plays",
      "outputs": [
        {
          "name": "opponent",
          "type": "address"
        },
        {
          "name": "wager",
          "type": "uint256"
        },
        {
          "name": "hashedMove",
          "type": "bytes32"
        },
        {
          "name": "move",
          "type": "uint8"
        },
        {
          "name": "timestampSubmit",
          "type": "uint256"
        },
        {
          "name": "timestampReveal",
          "type": "uint256"
        }
      ],
      "payable": false,
      "stateMutability": "view",
      "type": "function"
    },
    {
      "constant": true,
      "inputs": [],
      "name": "getOwner",
      "outputs": [
        {
          "name": "",
          "type": "address"
        }
      ],
      "payable": false,
      "stateMutability": "view",
      "type": "function"
    },
    {
      "constant": true,
      "inputs": [
        {
          "name": "",
          "type": "bytes32"
        }
      ],
      "name": "submits",
      "outputs": [
        {
          "name": "",
          "type": "bool"
        }
      ],
      "payable": false,
      "stateMutability": "view",
      "type": "function"
    },
    {
      "constant": false,
      "inputs": [
        {
          "name": "_newOwner",
          "type": "address"
        }
      ],
      "name": "changeOwner",
      "outputs": [],
      "payable": false,
      "stateMutability": "nonpayable",
      "type": "function"
    },
    {
      "constant": true,
      "inputs": [],
      "name": "state",
      "outputs": [
        {
          "name": "",
          "type": "uint8"
        }
      ],
      "payable": false,
      "stateMutability": "view",
      "type": "function"
    },
    {
      "constant": true,
      "inputs": [
        {
          "name": "",
          "type": "address"
        }
      ],
      "name": "balance",
      "outputs": [
        {
          "name": "",
          "type": "uint256"
        }
      ],
      "payable": false,
      "stateMutability": "view",
      "type": "function"
    },
    {
      "anonymous": false,
      "inputs": [
        {
          "indexed": true,
          "name": "sender",
          "type": "address"
        },
        {
          "indexed": false,
          "name": "depositAmount",
          "type": "uint256"
        }
      ],
      "name": "LogDeposit",
      "type": "event"
    },
    {
      "anonymous": false,
      "inputs": [
        {
          "indexed": true,
          "name": "sender",
          "type": "address"
        },
        {
          "indexed": true,
          "name": "opponent",
          "type": "address"
        },
        {
          "indexed": false,
          "name": "wager",
          "type": "uint256"
        }
      ],
      "name": "LogSubmittedMove",
      "type": "event"
    },
    {
      "anonymous": false,
      "inputs": [
        {
          "indexed": true,
          "name": "sender",
          "type": "address"
        },
        {
          "indexed": false,
          "name": "move",
          "type": "uint8"
        },
        {
          "indexed": true,
          "name": "opponent",
          "type": "address"
        },
        {
          "indexed": false,
          "name": "opponentMove",
          "type": "uint8"
        },
        {
          "indexed": false,
          "name": "result",
          "type": "uint8"
        },
        {
          "indexed": false,
          "name": "wager",
          "type": "uint256"
        }
      ],
      "name": "LogPlayedGame",
      "type": "event"
    },
    {
      "anonymous": false,
      "inputs": [
        {
          "indexed": true,
          "name": "sender",
          "type": "address"
        },
        {
          "indexed": true,
          "name": "opponent",
          "type": "address"
        },
        {
          "indexed": false,
          "name": "wager",
          "type": "uint256"
        }
      ],
      "name": "LogRescindedMove",
      "type": "event"
    },
    {
      "anonymous": false,
      "inputs": [
        {
          "indexed": true,
          "name": "sender",
          "type": "address"
        },
        {
          "indexed": false,
          "name": "withdrawAmount",
          "type": "uint256"
        }
      ],
      "name": "LogWithdrawBalance",
      "type": "event"
    },
    {
      "anonymous": false,
      "inputs": [
        {
          "indexed": true,
          "name": "sender",
          "type": "address"
        },
        {
          "indexed": true,
          "name": "newState",
          "type": "uint8"
        }
      ],
      "name": "LogSetState",
      "type": "event"
    },
    {
      "anonymous": false,
      "inputs": [
        {
          "indexed": true,
          "name": "oldOwner",
          "type": "address"
        },
        {
          "indexed": true,
          "name": "newOwner",
          "type": "address"
        }
      ],
      "name": "LogChangeOwner",
      "type": "event"
    },
    {
      "constant": false,
      "inputs": [],
      "name": "deposit",
      "outputs": [],
      "payable": true,
      "stateMutability": "payable",
      "type": "function"
    },
    {
      "constant": false,
      "inputs": [
        {
          "name": "_opponentAddress",
          "type": "address"
        },
        {
          "name": "_hashedMove",
          "type": "bytes32"
        },
        {
          "name": "_wager",
          "type": "uint256"
        }
      ],
      "name": "submitMove",
      "outputs": [],
      "payable": true,
      "stateMutability": "payable",
      "type": "function"
    },
    {
      "constant": false,
      "inputs": [
        {
          "name": "_opponentAddress",
          "type": "address"
        },
        {
          "name": "_move",
          "type": "uint8"
        },
        {
          "name": "_password",
          "type": "bytes32"
        }
      ],
      "name": "revealMove",
      "outputs": [],
      "payable": false,
      "stateMutability": "nonpayable",
      "type": "function"
    },
    {
      "constant": false,
      "inputs": [
        {
          "name": "msgSenderDetails",
          "type": "bytes32"
        },
        {
          "name": "opponentDetails",
          "type": "bytes32"
        },
        {
          "name": "_opponent",
          "type": "address"
        },
        {
          "name": "_move",
          "type": "uint8"
        }
      ],
      "name": "playGame",
      "outputs": [
        {
          "name": "resultOfGame",
          "type": "uint8"
        }
      ],
      "payable": false,
      "stateMutability": "nonpayable",
      "type": "function"
    },
    {
      "constant": false,
      "inputs": [
        {
          "name": "_opponent",
          "type": "address"
        }
      ],
      "name": "rescindMove",
      "outputs": [],
      "payable": false,
      "stateMutability": "nonpayable",
      "type": "function"
    },
    {
      "constant": false,
      "inputs": [
        {
          "name": "amount",
          "type": "uint256"
        }
      ],
      "name": "withdrawBalance",
      "outputs": [],
      "payable": false,
      "stateMutability": "nonpayable",
      "type": "function"
    },
    {
      "constant": true,
      "inputs": [],
      "name": "getContractBalance",
      "outputs": [
        {
          "name": "",
          "type": "uint256"
        }
      ],
      "payable": false,
      "stateMutability": "view",
      "type": "function"
    },
    {
      "constant": true,
      "inputs": [
        {
          "name": "_move",
          "type": "uint8"
        },
        {
          "name": "_password",
          "type": "bytes32"
        }
      ],
      "name": "generateHashedMove",
      "outputs": [
        {
          "name": "",
          "type": "bytes32"
        }
      ],
      "payable": false,
      "stateMutability": "view",
      "type": "function"
    },
    {
      "constant": true,
      "inputs": [
        {
          "name": "_msgSender",
          "type": "address"
        },
        {
          "name": "_opponentAddress",
          "type": "address"
        }
      ],
      "name": "calculateStorageHashMsgSender",
      "outputs": [
        {
          "name": "storageHashPlayer",
          "type": "bytes32"
        }
      ],
      "payable": false,
      "stateMutability": "pure",
      "type": "function"
    },
    {
      "constant": true,
      "inputs": [
        {
          "name": "_opponentAddress",
          "type": "address"
        },
        {
          "name": "_msgSender",
          "type": "address"
        }
      ],
      "name": "calculateStorageHashOpponent",
      "outputs": [
        {
          "name": "storageHashOpponent",
          "type": "bytes32"
        }
      ],
      "payable": false,
      "stateMutability": "pure",
      "type": "function"
    }
  ],
  "bytecode": "0x6080604052600080546001600160a01b0319163317600160a01b60ff0219168155611d8790819061003090396000f3fe6080604052600436106100fe5760003560e01c8063938e175811610095578063c19d93fb11610064578063c19d93fb146103ff578063d0e30db014610414578063da76d5cd1461041c578063e3d670d714610446578063fd604d061461016f576100fe565b8063938e17581461031a5780639ace84521461035c5780639c003f1f1461039a578063a6f9dae1146103cc576100fe565b80636f9fb98a116100d15780636f9fb98a1461026e57806374a25e73146102835780637bc945c4146102b6578063893d20e8146102e9576100fe565b80631109a7941461010357806324f425bc1461016f57806356de96db146101bc578063603448b0146101eb575b600080fd5b34801561010f57600080fd5b5061014b6004803603608081101561012657600080fd5b5080359060208101359060408101356001600160a01b0316906060013560ff16610479565b6040518082600281111561015b57fe5b60ff16815260200191505060405180910390f35b34801561017b57600080fd5b506101aa6004803603604081101561019257600080fd5b506001600160a01b03813581169160200135166107b6565b60408051918252519081900360200190f35b3480156101c857600080fd5b506101e9600480360360208110156101df57600080fd5b503560ff166107fb565b005b3480156101f757600080fd5b506102156004803603602081101561020e57600080fd5b5035610910565b60405180876001600160a01b03166001600160a01b0316815260200186815260200185815260200184600381111561024957fe5b60ff168152602001838152602001828152602001965050505050505060405180910390f35b34801561027a57600080fd5b506101aa610956565b34801561028f57600080fd5b506101e9600480360360208110156102a657600080fd5b50356001600160a01b031661095b565b3480156102c257600080fd5b506101aa600480360360408110156102d957600080fd5b5060ff8135169060200135610c28565b3480156102f557600080fd5b506102fe610d7a565b604080516001600160a01b039092168252519081900360200190f35b34801561032657600080fd5b506101e96004803603606081101561033d57600080fd5b506001600160a01b038135169060ff6020820135169060400135610d89565b34801561036857600080fd5b506103866004803603602081101561037f57600080fd5b5035610fb4565b604080519115158252519081900360200190f35b6101e9600480360360608110156103b057600080fd5b506001600160a01b038135169060208101359060400135610fc9565b3480156103d857600080fd5b506101e9600480360360208110156103ef57600080fd5b50356001600160a01b0316611292565b34801561040b57600080fd5b5061014b6113ed565b6101e96113fd565b34801561042857600080fd5b506101e96004803603602081101561043f57600080fd5b5035611506565b34801561045257600080fd5b506101aa6004803603602081101561046957600080fd5b50356001600160a01b031661168b565b600080600054600160a01b900460ff16600281111561049457fe5b146104d75760408051600160e51b62461bcd02815260206004820152601f6024820152600080516020611c9a833981519152604482015290519081900360640190fd5b6000848152600160208190526040808320600301548884529083209091015460ff90911691610506858461169d565b905060016000898152602001908152602001600020600080820160006101000a8154906001600160a01b030219169055600182016000905560028201600090556003820160006101000a81549060ff021916905560048201600090556005820160009055505060016000888152602001908152602001600020600080820160006101000a8154906001600160a01b030219169055600182016000905560028201600090556003820160006101000a81549060ff0219169055600482016000905560058201600090555050856001600160a01b0316336001600160a01b03167f274f7ec596c064de14224d7c32ac858593d53f55c55d96a995d9dc16be170800878685876040518085600381111561061957fe5b60ff16815260200184600381111561062d57fe5b60ff16815260200183600281111561064157fe5b60ff16815260200182815260200194505050505060405180910390a3600081600281111561066b57fe5b14156106bf576106a161068583600263ffffffff6117f716565b336000908152600260205260409020549063ffffffff61181c16565b3360009081526002602052604081209190915593506107ae92505050565b60018160028111156106cd57fe5b14156107325761070c6106e783600263ffffffff6117f716565b6001600160a01b0388166000908152600260205260409020549063ffffffff61181c16565b6001600160a01b03871660009081526002602052604090205550600192506107ae915050565b33600090815260026020526040902054610752908363ffffffff61181c16565b33600090815260026020526040808220929092556001600160a01b03881681522054610784908363ffffffff61181c16565b6001600160a01b03871660009081526002602081905260409091209190915593506107ae92505050565b949350505050565b604080516001600160a01b03808516606090811b602080850191909152918516901b603483015282516028818403018152604890920190925280519101205b92915050565b6000546001600160a01b0316331461084757604051600160e51b62461bcd028152600401808060200182810382526022815260200180611d166022913960400191505060405180910390fd5b6002600054600160a01b900460ff16600281111561086157fe5b14156108a157604051600160e51b62461bcd0281526004018080602001828103825260438152602001806118f86043913960600191505060405180910390fd5b6000805482919074ff00000000000000000000000000000000000000001916600160a01b8360028111156108d157fe5b02179055508060028111156108e257fe5b60405133907f8443aae512b274bfa1e5d65661bd8f0b4ffbc66eee3556711cce411fcf30478490600090a350565b60016020819052600091825260409091208054918101546002820154600383015460048401546005909401546001600160a01b03909516949293919260ff909116919086565b303190565b60008054600160a01b900460ff16600281111561097457fe5b146109b75760408051600160e51b62461bcd02815260206004820152601f6024820152600080516020611c9a833981519152604482015290519081900360640190fd5b60006109c333836107b6565b905060006109d183336107b6565b6000838152600160205260409020549091506001600160a01b03848116911614610a2f57604051600160e51b62461bcd02815260040180806020018281038252602d815260200180611cba602d913960400191505060405180910390fd5b6000818152600160205260409020546001600160a01b0316610abe576000828152600160205260409020600401544290610a7090603c63ffffffff61181c16565b10610aaf57604051600160e51b62461bcd0281526004018080602001828103825260228152602001806119dc6022913960400191505060405180910390fd5b610ab98284611829565b610c23565b6000818152600160205260409020546001600160a01b0316331415610c2357600082815260016020526040812060039081015460ff1690811115610afe57fe5b1415610b6557600082815260016020526040812060039081015460ff1690811115610b2557fe5b1415610ab957604051600160e51b62461bcd0281526004018080602001828103825260a7815260200180611b8960a7913960c00191505060405180910390fd5b600082815260016020526040812060039081015460ff1690811115610b8657fe5b14610c2357600081815260016020526040812060039081015460ff1690811115610bac57fe5b148015610bdb57506000828152600160205260409020600501544290610bd990603c63ffffffff61181c16565b105b610c1957604051600160e51b62461bcd02815260040180806020018281038252604a815260200180611b3f604a913960600191505060405180910390fd5b610c238284611829565b505050565b60006001836003811115610c3857fe5b1480610c4f57506002836003811115610c4d57fe5b145b80610c6557506003836003811115610c6357fe5b145b610ca357604051600160e51b62461bcd02815260040180806020018281038252602d8152602001806119fe602d913960400191505060405180910390fd5b81610cf85760408051600160e51b62461bcd02815260206004820181905260248201527f456e746572696e6720612070617373776f7264206973206d616e6461746f7279604482015290519081900360640190fd5b3033848460405160200180856001600160a01b03166001600160a01b031660601b8152601401846001600160a01b03166001600160a01b031660601b8152601401836003811115610d4557fe5b60ff1660f81b815260010182815260200194505050505060405160208183030381529060405280519060200120905092915050565b6000546001600160a01b031690565b60008054600160a01b900460ff166002811115610da257fe5b14610de55760408051600160e51b62461bcd02815260206004820152601f6024820152600080516020611c9a833981519152604482015290519081900360640190fd5b6000610df133856107b6565b90506000610dff85336107b6565b6000838152600160205260409020549091506001600160a01b03868116911614610e5d57604051600160e51b62461bcd028152600401808060200182810382526042815260200180611ab06042913960600191505060405180910390fd5b6000818152600160205260409020546001600160a01b03163314610eb557604051600160e51b62461bcd028152600401808060200182810382526049815260200180611a2b6049913960600191505060405180910390fd5b610ebf8484610c28565b60008381526001602052604090206002015414610f1057604051600160e51b62461bcd02815260040180806020018281038252604d815260200180611af2604d913960600191505060405180910390fd5b60008281526001602081905260409091206003808201805492938893919260ff19909216918490811115610f4057fe5b0217905550426005820155600083815260016020526040812060039081015460ff1690811115610f6c57fe5b14158015610f995750600082815260016020526040812060039081015460ff1690811115610f9657fe5b14155b15610fac57610faa83838888610479565b505b505050505050565b60036020526000908152604090205460ff1681565b60008054600160a01b900460ff166002811115610fe257fe5b146110255760408051600160e51b62461bcd02815260206004820152601f6024820152600080516020611c9a833981519152604482015290519081900360640190fd5b600061103133856107b6565b9050600061103f85336107b6565b336000908152600260205260409020549091508390611064903463ffffffff61181c16565b10156110a457604051600160e51b62461bcd02815260040180806020018281038252603c815260200180611a74603c913960400191505060405180910390fd5b60008481526003602052604090205460ff16156110f557604051600160e51b62461bcd0281526004018080602001828103825260588152602001806119846058913960600191505060405180910390fd5b6000828152600160205260409020546001600160a01b03161561114c57604051600160e51b62461bcd028152600401808060200182810382526037815260200180611c306037913960400191505060405180910390fd5b6000818152600160205260409020546001600160a01b03163314156111be576000818152600160208190526040909120015483146111be57604051600160e51b62461bcd02815260040180806020018281038252602f815260200180611ce7602f913960400191505060405180910390fd5b336000908152600260205260409020546111f09084906111e4903463ffffffff61181c16565b9063ffffffff6118e516565b33600081815260026020818152604080842095909555868352600180825285842080546001600160a01b0319166001600160a01b038d1690811782558183018b90559381018b90554260048201558a85526003835293869020805460ff191690911790558451888152945192949193927fb54cbe514a8192e73cc6a7e267a560c3fce7d98ddd0f0d039ee4634576e9a12c9281900390910190a3505050505050565b6000546001600160a01b031633146112de57604051600160e51b62461bcd028152600401808060200182810382526022815260200180611d166022913960400191505060405180910390fd5b6001600160a01b03811661133c5760408051600160e51b62461bcd02815260206004820152601360248201527f4e6f20616464726573732070726f766964656400000000000000000000000000604482015290519081900360640190fd5b6000546001600160a01b03828116911614156113a25760408051600160e51b62461bcd02815260206004820181905260248201527f43757272656e74206f776e65722063616e2774206265206e6577206f776e6572604482015290519081900360640190fd5b600080546001600160a01b0319166001600160a01b0383169081178255604051909133917f96b36bedce75759b139551b10b3d2e1e863dbbfbdc30f9f9e374bb24431d5da29190a350565b600054600160a01b900460ff1681565b60008054600160a01b900460ff16600281111561141657fe5b146114595760408051600160e51b62461bcd02815260206004820152601f6024820152600080516020611c9a833981519152604482015290519081900360640190fd5b6000341161149b57604051600160e51b62461bcd02815260040180806020018281038252602681526020018061195e6026913960400191505060405180910390fd5b336000908152600260205260409020546114bb903463ffffffff61181c16565b33600081815260026020908152604091829020939093558051348152905191927f1b851e1031ef35a238e6c67d0c7991162390df915f70eaf9098dbf0b175a619892918290030190a2565b6001600054600160a01b900460ff16600281111561152057fe5b141561156057604051600160e51b62461bcd028152600401808060200182810382526033815260200180611c676033913960400191505060405180910390fd5b600081116115a257604051600160e51b62461bcd02815260040180806020018281038252602381526020018061193b6023913960400191505060405180910390fd5b336000908152600260205260409020548111156115f357604051600160e51b62461bcd028152600401808060200182810382526024815260200180611d386024913960400191505060405180910390fd5b33600090815260026020526040902054611613908263ffffffff6118e516565b33600081815260026020526040808220939093559151909183156108fc02918491818181858888f19350505050158015611651573d6000803e3d6000fd5b5060408051828152905133917f91cf1c01784dbeae5be5abcccfa320284358a61ca55698a98075e827a9517abd919081900360200190a250565b60026020526000908152604090205481565b60008160038111156116ab57fe5b8360038111156116b757fe5b14156116c5575060026107f5565b60018360038111156116d357fe5b1480156116eb575060028260038111156116e957fe5b145b156116f8575060016107f5565b600283600381111561170657fe5b14801561171e5750600382600381111561171c57fe5b145b1561172b575060016107f5565b600383600381111561173957fe5b1480156117515750600182600381111561174f57fe5b145b1561175e575060016107f5565b600283600381111561176c57fe5b1480156117845750600182600381111561178257fe5b145b15611791575060006107f5565b600383600381111561179f57fe5b1480156117b7575060028260038111156117b557fe5b145b156117c4575060006107f5565b60018360038111156117d257fe5b1480156117ea575060038260038111156117e857fe5b145b156107f5575060006107f5565b600082611806575060006107f5565b508181028183828161181457fe5b04146107f557fe5b818101828110156107f557fe5b6000828152600160208181526040808420928301805484546001600160a01b031916855590859055600280850186905560038501805460ff19169055600485018690556005909401859055338552929091529091205461188f908263ffffffff61181c16565b3360008181526002602090815260409182902093909355805184815290516001600160a01b038616937f76c43e10d4c1f398cc73639241b97adf5378c594ba513bff2061763124cc7ea5928290030190a3505050565b6000828211156118f157fe5b5090039056fe54686520636f6e747261637420697320646561637469766174656420616e642063616e2774206265206d616465206f7065726174696f6e616c206f7220706175736564596f75206d757374207769746864726177206120706f73697469766520616d6f756e744120706f7369746976652076616c7565206e6565647320746f206265206465706f7369746564596f7520686176652070726576696f75736c7920757365642074686973206d6f7665202f2070617373776f726420636f6d62696e6174696f6e2c20706c656173652075736520616e20756e697175652070617373776f72645375626d697373696f6e20657870697279206e6f7420657863656564656420796574596f75206d75737420656e7465722065697468657220526f636b2c205061706572206f722053636973736f7273596f752063616e27742072657665616c20796f7572206d6f766520756e74696c20616674657220796f7572206f70706f6e656e7420686173207375626d69747465642061206d6f7665596f7520646f6e2774206861766520656e6f7567682066756e647320746f207375626d69742061206d6f7665207769746820746869732077616765725468657265206973206e6f206d6f7665206f75747374616e64696e6720616761696e7374206f70706f6e656e7420776869636820796f752063616e2072657665616c546865206d6f766520796f752061726520617474656d7074696e6720746f2072657665616c206973206e6f74207468652073616d6520617320746865206f6e6520796f75207375626d69746564596f7572206f70706f6e656e74207374696c6c206861732074696d6520746f2072657665616c206869732f686572206d6f7665206265666f726520796f752063616e2072657363696e64596f7520616e6420796f7572206f70706f6e656e74206861766520626f7468207375626d69747465642061206d6f76652c20627574206e6f742072657665616c65642c20796f752063616e27742072657363696e6420756e74696c20616674657220796f7520686176652072657665616c656420616e6420796f7572206f70706f6e656e74206861732065787069726564206869732f6865722072657665616c20706572696f64596f75206861766520616c7265616479207375626d69747465642061206d6f766520616761696e73742074686973206f70706f6e656e7454686520636f6e74726163742069732070617573656420616e642063616e277420626520696e7465726163746564207769746854686520636f6e7472616374206973206e6f74206f7065726174696f6e616c005468657265206973206e6f206d6f7665206f75747374616e64696e6720616761696e7374206f70706f6e656e74596f75206d757374207761676572207468652073616d6520616d6f756e7420617320796f7572206f70706f6e656e744f6e6c79206f776e65722063616e20706572666f726d207468697320616374696f6e596f7520646f6e277420686176652061206869676820656e6f7567682062616c616e6365a165627a7a72305820f2b604c1f812650536d71c980c91d43b8466e62c95caed530473370bcd226b2a0029",
  "source": "pragma solidity ^0.5.8;\n\nimport \"./Stoppable.sol\";\nimport \"./SafeMath.sol\";\n\n//@author  Richard Boeve\n//@title  Rock Paper Scissors game\ncontract RockPaperScissors is Stoppable {\n\n    //@notice  Using the SafeMath library\n    using SafeMath for uint256;\n\n    //@notice  State variables\n    uint256 constant gameExpiry = 1 minutes;\n\n    //@notice  Defining the move possibilities\n    enum Moves {\n        Undefined,\n        Rock,\n        Paper,\n        Scissors\n    }\n\n    //@notice  Defining the possible game outcomes\n    enum Result {\n        msgSenderWins,\n        opponentWins,\n        Draw\n    }\n\n    //@notice  Struct that contains the details of players moves\n    struct Plays {\n        address opponent;\n        uint256 wager;\n        bytes32 hashedMove;\n        Moves move;\n        uint256 timestampSubmit;\n        uint256 timestampReveal;\n    }\n\n    //@notice  Mapping that stores players moves\n    mapping(bytes32 => Plays) public plays;\n\n    //@notice  Mapping that stores winnings\n    mapping(address => uint256) public balance;\n\n    //@notice  Mapping that stores submitted moves hashes\n    mapping(bytes32 => bool) public submits;\n\n    //@notice  All events resulting from the contracts functions\n    event LogDeposit(address indexed sender, uint256 depositAmount);\n    event LogSubmittedMove(address indexed sender, address indexed opponent, uint256 wager);\n    event LogPlayedGame (address indexed sender, Moves move, address indexed opponent, Moves opponentMove, Result result, uint256 wager);\n    event LogRescindedMove(address indexed sender, address indexed opponent, uint256 wager);\n    event LogWithdrawBalance(address indexed sender, uint256 withdrawAmount);\n\n\n    //@notice  Function that allows players to deposit to their balance\n    function deposit() public onlyIfRunning payable {\n        //@dev  Verify that the funds sent are a positive value\n        require(msg.value > 0, \"A positive value needs to be deposited\");\n        //@dev  Store the funds against the users balance\n        balance[msg.sender] = balance[msg.sender].add(msg.value);\n        //@dev  Create logs\n        emit LogDeposit (msg.sender, msg.value);\n    }\n\n     //@notice  Function that allows a move to be submitted\n    function submitMove(address _opponentAddress, bytes32 _hashedMove, uint256 _wager) public onlyIfRunning payable {\n        //@dev  Create a unique hash to store the move\n        bytes32 storeMove = calculateStorageHashMsgSender(msg.sender, _opponentAddress);\n        //@dev  Calculate the hash your opponent has stored his move against (or where he/she will store move)\n        bytes32 storeMoveOpponent = calculateStorageHashOpponent(_opponentAddress, msg.sender);\n        //@dev  Verify that the balance and msg.value are equal or greater than the wager\n        require(balance[msg.sender].add(msg.value) >= _wager, \"You don't have enough funds to submit a move with this wager\");\n        //@dev  Verify that the password / move combination hasn't been used before\n        require(submits[_hashedMove] == false, \"You have previously used this move / password combination, please use an unique password\");\n        //@dev  Verify that there is no existing move for sender against the opponent\n        require(plays[storeMove].opponent == address(0), \"You have already submitted a move against this opponent\");\n        //@dev  Verify if the opponent already has submitted a move an if they have, that it has the same wager\n        if (plays[storeMoveOpponent].opponent == msg.sender) {\n            require(plays[storeMoveOpponent].wager == _wager, \"You must wager the same amount as your opponent\");\n        }\n        //@dev  Set the new balance\n        balance[msg.sender] = balance[msg.sender].add(msg.value).sub(_wager);\n        //@dev  Store the move\n        Plays storage currentMove = plays[storeMove];\n        currentMove.opponent = _opponentAddress;\n        currentMove.wager = _wager;\n        currentMove.hashedMove = _hashedMove;\n        currentMove.timestampSubmit = now;\n        //@dev  Set the hashed submit to true so it can't be used again\n        submits[_hashedMove] = true;\n        //@dev  Create logs\n        emit LogSubmittedMove(msg.sender, _opponentAddress, _wager);\n    }\n\n    //Function that allows a player to reveal their move, but only if the opponent has also submitted a move\n    function revealMove(address _opponentAddress, Moves _move, bytes32 _password) public onlyIfRunning {\n        //@dev  Calculate hash against which the move is stored\n        bytes32 msgSenderDetails = calculateStorageHashMsgSender(msg.sender, _opponentAddress);\n        //@dev  Calculate the hash your opponent has stored his move against\n        bytes32 opponentDetails = calculateStorageHashOpponent(_opponentAddress, msg.sender);\n        //@dev  Verify that msg.sender has stored a move against opponent\n        require(plays[msgSenderDetails].opponent == _opponentAddress,\n        \"There is no move outstanding against opponent which you can reveal\");\n        //@dev  Verify that the opponent has stored a move against msg.sender\n        require(plays[opponentDetails].opponent == msg.sender,\n        \"You can't reveal your move until after your opponent has submitted a move\");\n        //@dev  Verify that the hash is correct\n        require(plays[msgSenderDetails].hashedMove == generateHashedMove(_move, _password),\n        \"The move you are attempting to reveal is not the same as the one you submited\");\n        Plays storage saveMove = plays[msgSenderDetails];\n        saveMove.move = _move;\n        saveMove.timestampReveal = now;\n        //If both players have revealed the move, play the game\n        if (plays[msgSenderDetails].move != Moves.Undefined && plays[opponentDetails].move != Moves.Undefined) {\n            playGame(msgSenderDetails, opponentDetails, _opponentAddress, _move);\n        }\n    }\n\n    function playGame(bytes32 msgSenderDetails, bytes32 opponentDetails, address _opponent, Moves _move) public onlyIfRunning returns (Result resultOfGame) {\n        //@dev  Retrieve opponents move\n        Moves moveOpponent = plays[opponentDetails].move;\n        //@dev  Retrieve wager\n        uint256 wager = plays[msgSenderDetails].wager;\n        //@dev  Call function which will determine which player has the winning move\n        Result gameResult = calculateWin(_move, moveOpponent);\n        //@dev  Delete the moves of both players (so they can play again)\n        delete plays[msgSenderDetails];\n        delete plays[opponentDetails];\n        //@dev  Create logs\n        emit LogPlayedGame(msg.sender, _move, _opponent, moveOpponent, gameResult, wager);\n        //@dev  Assign wager to winning players balance and decrease balance of losing player\n        if (gameResult == Result.msgSenderWins) {\n            balance[msg.sender] = balance[msg.sender].add((wager.mul(2)));\n            return Result.msgSenderWins;\n        } else if (gameResult == Result.opponentWins) {\n            balance[_opponent] = balance[_opponent].add((wager.mul(2)));\n            return Result.opponentWins;\n        } else {\n            balance[msg.sender] = balance[msg.sender].add(wager);\n            balance[_opponent] = balance[_opponent].add(wager);\n            return Result.Draw;\n        }\n    }\n\n    //@notice  Function that allows a played move to be rescinded when opponent doesn't submit move within a week\n    //@notice  or when move doesn't get revealed within a week of msg.sender revealing\n    function rescindMove(address _opponent) public onlyIfRunning {\n        //@dev  Calculate hash against which the move is stored\n        bytes32 msgSenderDetails = calculateStorageHashMsgSender(msg.sender, _opponent);\n        //@dev  Calculate the hash your opponent has stored his move against\n        bytes32 opponentDetails = calculateStorageHashOpponent(_opponent, msg.sender);\n        //@dev  Verify there is a move stored against opponent\n        require(plays[msgSenderDetails].opponent == _opponent, \"There is no move outstanding against opponent\");\n        //@dev  If the opponent has not submitted a move\n        if (plays[opponentDetails].opponent == address(0)) {\n            //@dev Then verfiy if the expiry period has been exceded and if it has, call returnWager function\n            require(plays[msgSenderDetails].timestampSubmit.add(gameExpiry) < now, \"Submission expiry not exceeded yet\"); {\n            returnWager(msgSenderDetails, _opponent);\n            }\n        }\n        //@dev  If the opponent has submitted a move\n        else if (plays[opponentDetails].opponent == msg.sender) {\n            //@dev  And if message sender has not revealed his/her move yet, then don't allow to rescind\n            if (plays[msgSenderDetails].move == Moves.Undefined) {\n                require(plays[msgSenderDetails].move != Moves.Undefined,\n                \"You and your opponent have both submitted a move, but not revealed, you can't rescind until after you have revealed and your opponent has expired his/her reveal period\");\n            //@dev  If the message sender has revealed a move and the opponent hasn't, allow to rescind after expiry has been reached\n            } else if (plays[msgSenderDetails].move != Moves.Undefined) {\n                require(plays[opponentDetails].move == Moves.Undefined && plays[msgSenderDetails].timestampReveal.add(gameExpiry) < now,\n                \"Your opponent still has time to reveal his/her move before you can rescind\");\n                returnWager(msgSenderDetails, _opponent);\n            }\n        }\n    }\n\n    //@notice  Function that allows a player to withdraw his/her balance\n    function withdrawBalance(uint256 amount) public onlyIfNotPaused {\n        //@dev  Verify that the amount is positive\n        require(amount > 0, \"You must withdraw a positive amount\");\n        //@dev  Verify that the amount is not greater than the balance\n        require(balance[msg.sender] >= amount, \"You don't have a high enough balance\");\n        //@dev  Decrease balance\n        balance[msg.sender] = balance[msg.sender].sub(amount);\n        //@dev  Transfer balance to sender\n        address(msg.sender).transfer(amount);\n        //@dev  Create logs\n        emit LogWithdrawBalance(msg.sender, amount);\n    }\n\n    //@notice  Retrieves contract balance - just for Remix\n    function getContractBalance() public view returns (uint256) {\n        return address(this).balance;\n    }\n\n    //Function that allows a move with password to be hashed\n    function generateHashedMove(Moves _move, bytes32 _password) view public returns (bytes32) {\n        //Verify that the move and password have been populated\n        require(_move == Moves.Rock || _move == Moves.Paper || _move == Moves.Scissors, \"You must enter either Rock, Paper or Scissors\");\n        require(_password != 0, \"Entering a password is mandatory\");\n        return keccak256(abi.encodePacked(this, msg.sender, _move, _password));\n    }\n\n    //@notice  Function that calculates the hash against which moves are stored in the mapping for the player\n    function calculateStorageHashMsgSender(address _msgSender, address _opponentAddress) pure public returns (bytes32 storageHashPlayer) {\n        bytes32 storeMove = keccak256(abi.encodePacked(_msgSender, _opponentAddress));\n        return storeMove;\n    }\n\n    //@notice  Function that calculates the hash against which moves are stored in the mapping for the opponent\n    function calculateStorageHashOpponent(address _opponentAddress, address _msgSender) pure public returns (bytes32 storageHashOpponent) {\n        bytes32 storeMove = keccak256(abi.encodePacked(_opponentAddress, _msgSender));\n        return storeMove;\n    }\n\n    //@notice  Function that calculates the winning move\n    function calculateWin(Moves _move1, Moves _move2) pure internal returns (Result result) {\n        if (_move1 == _move2) {\n            return Result.Draw;\n        } else if (_move1 == Moves.Rock && _move2 == Moves.Paper) {\n            return Result.opponentWins;\n        } else if (_move1 == Moves.Paper && _move2 == Moves.Scissors) {\n            return Result.opponentWins;\n        } else if (_move1 == Moves.Scissors && _move2 == Moves.Rock) {\n            return Result.opponentWins;\n        } else if (_move1 == Moves.Paper && _move2 == Moves.Rock) {\n            return Result.msgSenderWins;\n        } else if (_move1 == Moves.Scissors && _move2 == Moves.Paper) {\n            return Result.msgSenderWins;\n        } else if (_move1 == Moves.Rock && _move2 == Moves.Scissors) {\n            return Result.msgSenderWins;\n        }\n    }\n\n    //@notice  Function that returns wagers from rescinded moves to message sender\n    function returnWager(bytes32 _msgSenderDetails, address _opponent) internal {\n        //@dev  Delete the move\n        uint256 wager = plays[_msgSenderDetails].wager;\n        delete plays[_msgSenderDetails];\n        //@dev  Return the wager to senders balance\n        balance[msg.sender] = balance[msg.sender].add(wager);\n        //@dev  Create logs\n        emit LogRescindedMove(msg.sender, _opponent, wager);\n    }\n}",
  "sourcePath": "/home/richard/workspace/B9 Eth Dev/RockPaperScissors/contracts/RockPaperScissors.sol",
  "compiler": {
    "name": "solc",
    "version": "0.5.8+commit.23d335f2.Emscripten.clang"
  },
  "schemaVersion": "3.0.14",
  "updatedAt": "2019-08-30T08:42:48.877Z",
  "devdoc": {
    "methods": {}
  },
  "userdoc": {
    "methods": {}
  }
}