{
  "contractName": "RockPaperScissors",
  "abi": [
    {
      "constant": false,
      "inputs": [
        {
          "name": "newState",
          "type": "uint8"
        }
      ],
      "name": "setState",
      "outputs": [],
      "payable": false,
      "stateMutability": "nonpayable",
      "type": "function",
      "signature": "0x56de96db"
    },
    {
      "constant": true,
      "inputs": [
        {
          "name": "",
          "type": "bytes32"
        }
      ],
      "name": "plays",
      "outputs": [
        {
          "name": "opponent",
          "type": "address"
        },
        {
          "name": "wager",
          "type": "uint256"
        },
        {
          "name": "hashedMove",
          "type": "bytes32"
        },
        {
          "name": "move",
          "type": "uint8"
        },
        {
          "name": "timestampSubmit",
          "type": "uint256"
        },
        {
          "name": "timestampReveal",
          "type": "uint256"
        }
      ],
      "payable": false,
      "stateMutability": "view",
      "type": "function",
      "signature": "0x603448b0"
    },
    {
      "constant": true,
      "inputs": [],
      "name": "getOwner",
      "outputs": [
        {
          "name": "",
          "type": "address"
        }
      ],
      "payable": false,
      "stateMutability": "view",
      "type": "function",
      "signature": "0x893d20e8"
    },
    {
      "constant": true,
      "inputs": [
        {
          "name": "",
          "type": "bytes32"
        }
      ],
      "name": "submits",
      "outputs": [
        {
          "name": "",
          "type": "bool"
        }
      ],
      "payable": false,
      "stateMutability": "view",
      "type": "function",
      "signature": "0x9ace8452"
    },
    {
      "constant": false,
      "inputs": [
        {
          "name": "_newOwner",
          "type": "address"
        }
      ],
      "name": "changeOwner",
      "outputs": [],
      "payable": false,
      "stateMutability": "nonpayable",
      "type": "function",
      "signature": "0xa6f9dae1"
    },
    {
      "constant": true,
      "inputs": [],
      "name": "state",
      "outputs": [
        {
          "name": "",
          "type": "uint8"
        }
      ],
      "payable": false,
      "stateMutability": "view",
      "type": "function",
      "signature": "0xc19d93fb"
    },
    {
      "constant": true,
      "inputs": [
        {
          "name": "",
          "type": "address"
        }
      ],
      "name": "balance",
      "outputs": [
        {
          "name": "",
          "type": "uint256"
        }
      ],
      "payable": false,
      "stateMutability": "view",
      "type": "function",
      "signature": "0xe3d670d7"
    },
    {
      "anonymous": false,
      "inputs": [
        {
          "indexed": true,
          "name": "sender",
          "type": "address"
        },
        {
          "indexed": false,
          "name": "depositAmount",
          "type": "uint256"
        }
      ],
      "name": "LogDeposit",
      "type": "event",
      "signature": "0x1b851e1031ef35a238e6c67d0c7991162390df915f70eaf9098dbf0b175a6198"
    },
    {
      "anonymous": false,
      "inputs": [
        {
          "indexed": true,
          "name": "sender",
          "type": "address"
        },
        {
          "indexed": true,
          "name": "opponent",
          "type": "address"
        },
        {
          "indexed": false,
          "name": "wager",
          "type": "uint256"
        }
      ],
      "name": "LogSubmittedMove",
      "type": "event",
      "signature": "0xb54cbe514a8192e73cc6a7e267a560c3fce7d98ddd0f0d039ee4634576e9a12c"
    },
    {
      "anonymous": false,
      "inputs": [
        {
          "indexed": true,
          "name": "sender",
          "type": "address"
        },
        {
          "indexed": false,
          "name": "move",
          "type": "uint8"
        },
        {
          "indexed": true,
          "name": "opponent",
          "type": "address"
        },
        {
          "indexed": false,
          "name": "opponentMove",
          "type": "uint8"
        },
        {
          "indexed": false,
          "name": "result",
          "type": "uint8"
        },
        {
          "indexed": false,
          "name": "wager",
          "type": "uint256"
        }
      ],
      "name": "LogPlayedGame",
      "type": "event",
      "signature": "0x274f7ec596c064de14224d7c32ac858593d53f55c55d96a995d9dc16be170800"
    },
    {
      "anonymous": false,
      "inputs": [
        {
          "indexed": true,
          "name": "sender",
          "type": "address"
        },
        {
          "indexed": true,
          "name": "opponent",
          "type": "address"
        },
        {
          "indexed": false,
          "name": "wager",
          "type": "uint256"
        }
      ],
      "name": "LogRescindedMove",
      "type": "event",
      "signature": "0x76c43e10d4c1f398cc73639241b97adf5378c594ba513bff2061763124cc7ea5"
    },
    {
      "anonymous": false,
      "inputs": [
        {
          "indexed": true,
          "name": "sender",
          "type": "address"
        },
        {
          "indexed": false,
          "name": "withdrawAmount",
          "type": "uint256"
        }
      ],
      "name": "LogWithdrawBalance",
      "type": "event",
      "signature": "0x91cf1c01784dbeae5be5abcccfa320284358a61ca55698a98075e827a9517abd"
    },
    {
      "anonymous": false,
      "inputs": [
        {
          "indexed": true,
          "name": "sender",
          "type": "address"
        },
        {
          "indexed": true,
          "name": "newState",
          "type": "uint8"
        }
      ],
      "name": "LogSetState",
      "type": "event",
      "signature": "0x8443aae512b274bfa1e5d65661bd8f0b4ffbc66eee3556711cce411fcf304784"
    },
    {
      "anonymous": false,
      "inputs": [
        {
          "indexed": true,
          "name": "oldOwner",
          "type": "address"
        },
        {
          "indexed": true,
          "name": "newOwner",
          "type": "address"
        }
      ],
      "name": "LogChangeOwner",
      "type": "event",
      "signature": "0x96b36bedce75759b139551b10b3d2e1e863dbbfbdc30f9f9e374bb24431d5da2"
    },
    {
      "constant": false,
      "inputs": [],
      "name": "deposit",
      "outputs": [],
      "payable": true,
      "stateMutability": "payable",
      "type": "function",
      "signature": "0xd0e30db0"
    },
    {
      "constant": false,
      "inputs": [
        {
          "name": "_opponentAddress",
          "type": "address"
        },
        {
          "name": "_hashedMove",
          "type": "bytes32"
        },
        {
          "name": "_wager",
          "type": "uint256"
        }
      ],
      "name": "submitMove",
      "outputs": [],
      "payable": true,
      "stateMutability": "payable",
      "type": "function",
      "signature": "0x9c003f1f"
    },
    {
      "constant": false,
      "inputs": [
        {
          "name": "_opponentAddress",
          "type": "address"
        },
        {
          "name": "_move",
          "type": "uint8"
        },
        {
          "name": "_password",
          "type": "bytes32"
        }
      ],
      "name": "revealMove",
      "outputs": [],
      "payable": false,
      "stateMutability": "nonpayable",
      "type": "function",
      "signature": "0x938e1758"
    },
    {
      "constant": false,
      "inputs": [
        {
          "name": "msgSenderDetails",
          "type": "bytes32"
        },
        {
          "name": "opponentDetails",
          "type": "bytes32"
        },
        {
          "name": "_opponent",
          "type": "address"
        },
        {
          "name": "_move",
          "type": "uint8"
        }
      ],
      "name": "playGame",
      "outputs": [
        {
          "name": "resultOfGame",
          "type": "uint8"
        }
      ],
      "payable": false,
      "stateMutability": "nonpayable",
      "type": "function",
      "signature": "0x1109a794"
    },
    {
      "constant": false,
      "inputs": [
        {
          "name": "_opponent",
          "type": "address"
        }
      ],
      "name": "rescindMove",
      "outputs": [],
      "payable": false,
      "stateMutability": "nonpayable",
      "type": "function",
      "signature": "0x74a25e73"
    },
    {
      "constant": false,
      "inputs": [
        {
          "name": "amount",
          "type": "uint256"
        }
      ],
      "name": "withdrawBalance",
      "outputs": [],
      "payable": false,
      "stateMutability": "nonpayable",
      "type": "function",
      "signature": "0xda76d5cd"
    },
    {
      "constant": true,
      "inputs": [],
      "name": "getContractBalance",
      "outputs": [
        {
          "name": "",
          "type": "uint256"
        }
      ],
      "payable": false,
      "stateMutability": "view",
      "type": "function",
      "signature": "0x6f9fb98a"
    },
    {
      "constant": true,
      "inputs": [
        {
          "name": "_move",
          "type": "uint8"
        },
        {
          "name": "_password",
          "type": "bytes32"
        }
      ],
      "name": "generateHashedMove",
      "outputs": [
        {
          "name": "",
          "type": "bytes32"
        }
      ],
      "payable": false,
      "stateMutability": "view",
      "type": "function",
      "signature": "0x7bc945c4"
    },
    {
      "constant": true,
      "inputs": [
        {
          "name": "_msgSender",
          "type": "address"
        },
        {
          "name": "_opponentAddress",
          "type": "address"
        }
      ],
      "name": "calculateStorageHashMsgSender",
      "outputs": [
        {
          "name": "storageHashPlayer",
          "type": "bytes32"
        }
      ],
      "payable": false,
      "stateMutability": "pure",
      "type": "function",
      "signature": "0x24f425bc"
    },
    {
      "constant": true,
      "inputs": [
        {
          "name": "_opponentAddress",
          "type": "address"
        },
        {
          "name": "_msgSender",
          "type": "address"
        }
      ],
      "name": "calculateStorageHashOpponent",
      "outputs": [
        {
          "name": "storageHashOpponent",
          "type": "bytes32"
        }
      ],
      "payable": false,
      "stateMutability": "pure",
      "type": "function",
      "signature": "0xfd604d06"
    }
  ],
  "bytecode": "0x6080604052336000806101000a81548173ffffffffffffffffffffffffffffffffffffffff021916908373ffffffffffffffffffffffffffffffffffffffff16021790555060008060146101000a81548160ff0219169083600281111561006257fe5b0217905550612f66806100766000396000f3fe60806040526004361061011b576000357c010000000000000000000000000000000000000000000000000000000090048063938e1758116100b2578063c19d93fb11610081578063c19d93fb146105b6578063d0e30db0146105ef578063da76d5cd146105f9578063e3d670d714610634578063fd604d06146106995761011b565b8063938e1758146104525780639ace8452146104ba5780639c003f1f1461050d578063a6f9dae1146105655761011b565b80636f9fb98a116100ee5780636f9fb98a1461032357806374a25e731461034e5780637bc945c41461039f578063893d20e8146103fb5761011b565b80631109a7941461012057806324f425bc146101b457806356de96db14610239578063603448b014610277575b600080fd5b34801561012c57600080fd5b506101906004803603608081101561014357600080fd5b810190808035906020019092919080359060200190929190803573ffffffffffffffffffffffffffffffffffffffff169060200190929190803560ff16906020019092919050505061071e565b604051808260028111156101a057fe5b60ff16815260200191505060405180910390f35b3480156101c057600080fd5b50610223600480360360408110156101d757600080fd5b81019080803573ffffffffffffffffffffffffffffffffffffffff169060200190929190803573ffffffffffffffffffffffffffffffffffffffff169060200190929190505050610c74565b6040518082815260200191505060405180910390f35b34801561024557600080fd5b506102756004803603602081101561025c57600080fd5b81019080803560ff169060200190929190505050610d28565b005b34801561028357600080fd5b506102b06004803603602081101561029a57600080fd5b8101908080359060200190929190505050610ec0565b604051808773ffffffffffffffffffffffffffffffffffffffff1673ffffffffffffffffffffffffffffffffffffffff1681526020018681526020018581526020018460038111156102fe57fe5b60ff168152602001838152602001828152602001965050505050505060405180910390f35b34801561032f57600080fd5b50610338610f29565b6040518082815260200191505060405180910390f35b34801561035a57600080fd5b5061039d6004803603602081101561037157600080fd5b81019080803573ffffffffffffffffffffffffffffffffffffffff169060200190929190505050610f48565b005b3480156103ab57600080fd5b506103e5600480360360408110156103c257600080fd5b81019080803560ff16906020019092919080359060200190929190505050611412565b6040518082815260200191505060405180910390f35b34801561040757600080fd5b5061041061162b565b604051808273ffffffffffffffffffffffffffffffffffffffff1673ffffffffffffffffffffffffffffffffffffffff16815260200191505060405180910390f35b34801561045e57600080fd5b506104b86004803603606081101561047557600080fd5b81019080803573ffffffffffffffffffffffffffffffffffffffff169060200190929190803560ff16906020019092919080359060200190929190505050611654565b005b3480156104c657600080fd5b506104f3600480360360208110156104dd57600080fd5b81019080803590602001909291905050506119da565b604051808215151515815260200191505060405180910390f35b6105636004803603606081101561052357600080fd5b81019080803573ffffffffffffffffffffffffffffffffffffffff16906020019092919080359060200190929190803590602001909291905050506119fa565b005b34801561057157600080fd5b506105b46004803603602081101561058857600080fd5b81019080803573ffffffffffffffffffffffffffffffffffffffff169060200190929190505050611f21565b005b3480156105c257600080fd5b506105cb6121c9565b604051808260028111156105db57fe5b60ff16815260200191505060405180910390f35b6105f76121dc565b005b34801561060557600080fd5b506106326004803603602081101561061c57600080fd5b81019080803590602001909291905050506123b5565b005b34801561064057600080fd5b506106836004803603602081101561065757600080fd5b81019080803573ffffffffffffffffffffffffffffffffffffffff169060200190929190505050612652565b6040518082815260200191505060405180910390f35b3480156106a557600080fd5b50610708600480360360408110156106bc57600080fd5b81019080803573ffffffffffffffffffffffffffffffffffffffff169060200190929190803573ffffffffffffffffffffffffffffffffffffffff16906020019092919050505061266a565b6040518082815260200191505060405180910390f35b600080600281111561072c57fe5b600060149054906101000a900460ff16600281111561074757fe5b146107ba576040517f08c379a000000000000000000000000000000000000000000000000000000000815260040180806020018281038252601f8152602001807f54686520636f6e7472616374206973206e6f74206f7065726174696f6e616c0081525060200191505060405180910390fd5b60006001600086815260200190815260200160002060030160009054906101000a900460ff1690506000600160008881526020019081526020016000206001015490506000610809858461271e565b905060016000898152602001908152602001600020600080820160006101000a81549073ffffffffffffffffffffffffffffffffffffffff0219169055600182016000905560028201600090556003820160006101000a81549060ff021916905560048201600090556005820160009055505060016000888152602001908152602001600020600080820160006101000a81549073ffffffffffffffffffffffffffffffffffffffff0219169055600182016000905560028201600090556003820160006101000a81549060ff02191690556004820160009055600582016000905550508573ffffffffffffffffffffffffffffffffffffffff163373ffffffffffffffffffffffffffffffffffffffff167f274f7ec596c064de14224d7c32ac858593d53f55c55d96a995d9dc16be170800878685876040518085600381111561095057fe5b60ff16815260200184600381111561096457fe5b60ff16815260200183600281111561097857fe5b60ff16815260200182815260200194505050505060405180910390a3600060028111156109a157fe5b8160028111156109ad57fe5b1415610a6757610a186109ca60028461290690919063ffffffff16565b600260003373ffffffffffffffffffffffffffffffffffffffff1673ffffffffffffffffffffffffffffffffffffffff1681526020019081526020016000205461293a90919063ffffffff16565b600260003373ffffffffffffffffffffffffffffffffffffffff1673ffffffffffffffffffffffffffffffffffffffff1681526020019081526020016000208190555060009350505050610c6c565b60016002811115610a7457fe5b816002811115610a8057fe5b1415610b3a57610aeb610a9d60028461290690919063ffffffff16565b600260008973ffffffffffffffffffffffffffffffffffffffff1673ffffffffffffffffffffffffffffffffffffffff1681526020019081526020016000205461293a90919063ffffffff16565b600260008873ffffffffffffffffffffffffffffffffffffffff1673ffffffffffffffffffffffffffffffffffffffff1681526020019081526020016000208190555060019350505050610c6c565b610b8c82600260003373ffffffffffffffffffffffffffffffffffffffff1673ffffffffffffffffffffffffffffffffffffffff1681526020019081526020016000205461293a90919063ffffffff16565b600260003373ffffffffffffffffffffffffffffffffffffffff1673ffffffffffffffffffffffffffffffffffffffff16815260200190815260200160002081905550610c2182600260008973ffffffffffffffffffffffffffffffffffffffff1673ffffffffffffffffffffffffffffffffffffffff1681526020019081526020016000205461293a90919063ffffffff16565b600260008873ffffffffffffffffffffffffffffffffffffffff1673ffffffffffffffffffffffffffffffffffffffff16815260200190815260200160002081905550600293505050505b949350505050565b6000808383604051602001808373ffffffffffffffffffffffffffffffffffffffff1673ffffffffffffffffffffffffffffffffffffffff166c010000000000000000000000000281526014018273ffffffffffffffffffffffffffffffffffffffff1673ffffffffffffffffffffffffffffffffffffffff166c01000000000000000000000000028152601401925050506040516020818303038152906040528051906020012090508091505092915050565b6000809054906101000a900473ffffffffffffffffffffffffffffffffffffffff1673ffffffffffffffffffffffffffffffffffffffff163373ffffffffffffffffffffffffffffffffffffffff1614610dcd576040517f08c379a0000000000000000000000000000000000000000000000000000000008152600401808060200182810382526022815260200180612ef56022913960400191505060405180910390fd5b600280811115610dd957fe5b600060149054906101000a900460ff166002811115610df457fe5b1415610e4b576040517f08c379a0000000000000000000000000000000000000000000000000000000008152600401808060200182810382526043815260200180612af76043913960600191505060405180910390fd5b80600060146101000a81548160ff02191690836002811115610e6957fe5b0217905550806002811115610e7a57fe5b3373ffffffffffffffffffffffffffffffffffffffff167f8443aae512b274bfa1e5d65661bd8f0b4ffbc66eee3556711cce411fcf30478460405160405180910390a350565b60016020528060005260406000206000915090508060000160009054906101000a900473ffffffffffffffffffffffffffffffffffffffff16908060010154908060020154908060030160009054906101000a900460ff16908060040154908060050154905086565b60003073ffffffffffffffffffffffffffffffffffffffff1631905090565b60006002811115610f5557fe5b600060149054906101000a900460ff166002811115610f7057fe5b14610fe3576040517f08c379a000000000000000000000000000000000000000000000000000000000815260040180806020018281038252601f8152602001807f54686520636f6e7472616374206973206e6f74206f7065726174696f6e616c0081525060200191505060405180910390fd5b6000610fef3383610c74565b90506000610ffd833361266a565b90508273ffffffffffffffffffffffffffffffffffffffff166001600084815260200190815260200160002060000160009054906101000a900473ffffffffffffffffffffffffffffffffffffffff1673ffffffffffffffffffffffffffffffffffffffff16146110b9576040517f08c379a000000000000000000000000000000000000000000000000000000000815260040180806020018281038252602d815260200180612e99602d913960400191505060405180910390fd5b600073ffffffffffffffffffffffffffffffffffffffff166001600083815260200190815260200160002060000160009054906101000a900473ffffffffffffffffffffffffffffffffffffffff1673ffffffffffffffffffffffffffffffffffffffff1614156111b4574261114f603c600160008681526020019081526020016000206004015461293a90919063ffffffff16565b106111a5576040517f08c379a0000000000000000000000000000000000000000000000000000000008152600401808060200182810382526022815260200180612bdb6022913960400191505060405180910390fd5b6111af8284612954565b61140d565b3373ffffffffffffffffffffffffffffffffffffffff166001600083815260200190815260200160002060000160009054906101000a900473ffffffffffffffffffffffffffffffffffffffff1673ffffffffffffffffffffffffffffffffffffffff16141561140c576000600381111561122b57fe5b6001600084815260200190815260200160002060030160009054906101000a900460ff16600381111561125a57fe5b14156112f8576000600381111561126d57fe5b6001600084815260200190815260200160002060030160009054906101000a900460ff16600381111561129c57fe5b14156112f3576040517f08c379a00000000000000000000000000000000000000000000000000000000081526004018080602001828103825260a7815260200180612d8860a7913960c00191505060405180910390fd5b61140b565b6000600381111561130557fe5b6001600084815260200190815260200160002060030160009054906101000a900460ff16600381111561133457fe5b1461140a576000600381111561134657fe5b6001600083815260200190815260200160002060030160009054906101000a900460ff16600381111561137557fe5b1480156113aa5750426113a8603c600160008681526020019081526020016000206005015461293a90919063ffffffff16565b105b6113ff576040517f08c379a000000000000000000000000000000000000000000000000000000000815260040180806020018281038252604a815260200180612d3e604a913960600191505060405180910390fd5b6114098284612954565b5b5b5b5b505050565b60006001600381111561142157fe5b83600381111561142d57fe5b148061144f57506002600381111561144157fe5b83600381111561144d57fe5b145b8061146f575060038081111561146157fe5b83600381111561146d57fe5b145b6114c4576040517f08c379a000000000000000000000000000000000000000000000000000000000815260040180806020018281038252602d815260200180612bfd602d913960400191505060405180910390fd5b600060010282141561153e576040517f08c379a00000000000000000000000000000000000000000000000000000000081526004018080602001828103825260208152602001807f456e746572696e6720612070617373776f7264206973206d616e6461746f727981525060200191505060405180910390fd5b30338484604051602001808573ffffffffffffffffffffffffffffffffffffffff1673ffffffffffffffffffffffffffffffffffffffff166c010000000000000000000000000281526014018473ffffffffffffffffffffffffffffffffffffffff1673ffffffffffffffffffffffffffffffffffffffff166c010000000000000000000000000281526014018360038111156115d757fe5b60ff167f010000000000000000000000000000000000000000000000000000000000000002815260010182815260200194505050505060405160208183030381529060405280519060200120905092915050565b60008060009054906101000a900473ffffffffffffffffffffffffffffffffffffffff16905090565b6000600281111561166157fe5b600060149054906101000a900460ff16600281111561167c57fe5b146116ef576040517f08c379a000000000000000000000000000000000000000000000000000000000815260040180806020018281038252601f8152602001807f54686520636f6e7472616374206973206e6f74206f7065726174696f6e616c0081525060200191505060405180910390fd5b60006116fb3385610c74565b90506000611709853361266a565b90508473ffffffffffffffffffffffffffffffffffffffff166001600084815260200190815260200160002060000160009054906101000a900473ffffffffffffffffffffffffffffffffffffffff1673ffffffffffffffffffffffffffffffffffffffff16146117c5576040517f08c379a0000000000000000000000000000000000000000000000000000000008152600401808060200182810382526042815260200180612caf6042913960600191505060405180910390fd5b3373ffffffffffffffffffffffffffffffffffffffff166001600083815260200190815260200160002060000160009054906101000a900473ffffffffffffffffffffffffffffffffffffffff1673ffffffffffffffffffffffffffffffffffffffff161461187f576040517f08c379a0000000000000000000000000000000000000000000000000000000008152600401808060200182810382526049815260200180612c2a6049913960600191505060405180910390fd5b6118898484611412565b6001600084815260200190815260200160002060020154146118f6576040517f08c379a000000000000000000000000000000000000000000000000000000000815260040180806020018281038252604d815260200180612cf1604d913960600191505060405180910390fd5b6000600160008481526020019081526020016000209050848160030160006101000a81548160ff0219169083600381111561192d57fe5b02179055504281600501819055506000600381111561194857fe5b6001600085815260200190815260200160002060030160009054906101000a900460ff16600381111561197757fe5b141580156119bf57506000600381111561198d57fe5b6001600084815260200190815260200160002060030160009054906101000a900460ff1660038111156119bc57fe5b14155b156119d2576119d08383888861071e565b505b505050505050565b60036020528060005260406000206000915054906101000a900460ff1681565b60006002811115611a0757fe5b600060149054906101000a900460ff166002811115611a2257fe5b14611a95576040517f08c379a000000000000000000000000000000000000000000000000000000000815260040180806020018281038252601f8152602001807f54686520636f6e7472616374206973206e6f74206f7065726174696f6e616c0081525060200191505060405180910390fd5b6000611aa13385610c74565b90506000611aaf853361266a565b905082611b0434600260003373ffffffffffffffffffffffffffffffffffffffff1673ffffffffffffffffffffffffffffffffffffffff1681526020019081526020016000205461293a90919063ffffffff16565b1015611b5b576040517f08c379a000000000000000000000000000000000000000000000000000000000815260040180806020018281038252603c815260200180612c73603c913960400191505060405180910390fd5b600015156003600086815260200190815260200160002060009054906101000a900460ff16151514611bd8576040517f08c379a0000000000000000000000000000000000000000000000000000000008152600401808060200182810382526058815260200180612b836058913960600191505060405180910390fd5b600073ffffffffffffffffffffffffffffffffffffffff166001600084815260200190815260200160002060000160009054906101000a900473ffffffffffffffffffffffffffffffffffffffff1673ffffffffffffffffffffffffffffffffffffffff1614611c93576040517f08c379a0000000000000000000000000000000000000000000000000000000008152600401808060200182810382526037815260200180612e2f6037913960400191505060405180910390fd5b3373ffffffffffffffffffffffffffffffffffffffff166001600083815260200190815260200160002060000160009054906101000a900473ffffffffffffffffffffffffffffffffffffffff1673ffffffffffffffffffffffffffffffffffffffff161415611d6c5782600160008381526020019081526020016000206001015414611d6b576040517f08c379a000000000000000000000000000000000000000000000000000000000815260040180806020018281038252602f815260200180612ec6602f913960400191505060405180910390fd5b5b611dd083611dc234600260003373ffffffffffffffffffffffffffffffffffffffff1673ffffffffffffffffffffffffffffffffffffffff1681526020019081526020016000205461293a90919063ffffffff16565b612adf90919063ffffffff16565b600260003373ffffffffffffffffffffffffffffffffffffffff1673ffffffffffffffffffffffffffffffffffffffff168152602001908152602001600020819055506000600160008481526020019081526020016000209050858160000160006101000a81548173ffffffffffffffffffffffffffffffffffffffff021916908373ffffffffffffffffffffffffffffffffffffffff16021790555083816001018190555084816002018190555042816004018190555060016003600087815260200190815260200160002060006101000a81548160ff0219169083151502179055508573ffffffffffffffffffffffffffffffffffffffff163373ffffffffffffffffffffffffffffffffffffffff167fb54cbe514a8192e73cc6a7e267a560c3fce7d98ddd0f0d039ee4634576e9a12c866040518082815260200191505060405180910390a3505050505050565b6000809054906101000a900473ffffffffffffffffffffffffffffffffffffffff1673ffffffffffffffffffffffffffffffffffffffff163373ffffffffffffffffffffffffffffffffffffffff1614611fc6576040517f08c379a0000000000000000000000000000000000000000000000000000000008152600401808060200182810382526022815260200180612ef56022913960400191505060405180910390fd5b600073ffffffffffffffffffffffffffffffffffffffff168173ffffffffffffffffffffffffffffffffffffffff161415612069576040517f08c379a00000000000000000000000000000000000000000000000000000000081526004018080602001828103825260138152602001807f4e6f20616464726573732070726f76696465640000000000000000000000000081525060200191505060405180910390fd5b6000809054906101000a900473ffffffffffffffffffffffffffffffffffffffff1673ffffffffffffffffffffffffffffffffffffffff168173ffffffffffffffffffffffffffffffffffffffff16141561212c576040517f08c379a00000000000000000000000000000000000000000000000000000000081526004018080602001828103825260208152602001807f43757272656e74206f776e65722063616e2774206265206e6577206f776e657281525060200191505060405180910390fd5b806000806101000a81548173ffffffffffffffffffffffffffffffffffffffff021916908373ffffffffffffffffffffffffffffffffffffffff1602179055508073ffffffffffffffffffffffffffffffffffffffff163373ffffffffffffffffffffffffffffffffffffffff167f96b36bedce75759b139551b10b3d2e1e863dbbfbdc30f9f9e374bb24431d5da260405160405180910390a350565b600060149054906101000a900460ff1681565b600060028111156121e957fe5b600060149054906101000a900460ff16600281111561220457fe5b14612277576040517f08c379a000000000000000000000000000000000000000000000000000000000815260040180806020018281038252601f8152602001807f54686520636f6e7472616374206973206e6f74206f7065726174696f6e616c0081525060200191505060405180910390fd5b600034116122d0576040517f08c379a0000000000000000000000000000000000000000000000000000000008152600401808060200182810382526026815260200180612b5d6026913960400191505060405180910390fd5b61232234600260003373ffffffffffffffffffffffffffffffffffffffff1673ffffffffffffffffffffffffffffffffffffffff1681526020019081526020016000205461293a90919063ffffffff16565b600260003373ffffffffffffffffffffffffffffffffffffffff1673ffffffffffffffffffffffffffffffffffffffff168152602001908152602001600020819055503373ffffffffffffffffffffffffffffffffffffffff167f1b851e1031ef35a238e6c67d0c7991162390df915f70eaf9098dbf0b175a6198346040518082815260200191505060405180910390a2565b600160028111156123c257fe5b600060149054906101000a900460ff1660028111156123dd57fe5b1415612434576040517f08c379a0000000000000000000000000000000000000000000000000000000008152600401808060200182810382526033815260200180612e666033913960400191505060405180910390fd5b6000811161248d576040517f08c379a0000000000000000000000000000000000000000000000000000000008152600401808060200182810382526023815260200180612b3a6023913960400191505060405180910390fd5b80600260003373ffffffffffffffffffffffffffffffffffffffff1673ffffffffffffffffffffffffffffffffffffffff168152602001908152602001600020541015612525576040517f08c379a0000000000000000000000000000000000000000000000000000000008152600401808060200182810382526024815260200180612f176024913960400191505060405180910390fd5b61257781600260003373ffffffffffffffffffffffffffffffffffffffff1673ffffffffffffffffffffffffffffffffffffffff16815260200190815260200160002054612adf90919063ffffffff16565b600260003373ffffffffffffffffffffffffffffffffffffffff1673ffffffffffffffffffffffffffffffffffffffff168152602001908152602001600020819055503373ffffffffffffffffffffffffffffffffffffffff166108fc829081150290604051600060405180830381858888f19350505050158015612600573d6000803e3d6000fd5b503373ffffffffffffffffffffffffffffffffffffffff167f91cf1c01784dbeae5be5abcccfa320284358a61ca55698a98075e827a9517abd826040518082815260200191505060405180910390a250565b60026020528060005260406000206000915090505481565b6000808383604051602001808373ffffffffffffffffffffffffffffffffffffffff1673ffffffffffffffffffffffffffffffffffffffff166c010000000000000000000000000281526014018273ffffffffffffffffffffffffffffffffffffffff1673ffffffffffffffffffffffffffffffffffffffff166c01000000000000000000000000028152601401925050506040516020818303038152906040528051906020012090508091505092915050565b600081600381111561272c57fe5b83600381111561273857fe5b14156127475760029050612900565b6001600381111561275457fe5b83600381111561276057fe5b14801561278357506002600381111561277557fe5b82600381111561278157fe5b145b156127915760019050612900565b6002600381111561279e57fe5b8360038111156127aa57fe5b1480156127cc57506003808111156127be57fe5b8260038111156127ca57fe5b145b156127da5760019050612900565b6003808111156127e657fe5b8360038111156127f257fe5b14801561281557506001600381111561280757fe5b82600381111561281357fe5b145b156128235760019050612900565b6002600381111561283057fe5b83600381111561283c57fe5b14801561285f57506001600381111561285157fe5b82600381111561285d57fe5b145b1561286d5760009050612900565b60038081111561287957fe5b83600381111561288557fe5b1480156128a857506002600381111561289a57fe5b8260038111156128a657fe5b145b156128b65760009050612900565b600160038111156128c357fe5b8360038111156128cf57fe5b1480156128f157506003808111156128e357fe5b8260038111156128ef57fe5b145b156128ff5760009050612900565b5b92915050565b6000808314156129195760009050612934565b81830290508183828161292857fe5b041461293057fe5b8090505b92915050565b600081830190508281101561294b57fe5b80905092915050565b60006001600084815260200190815260200160002060010154905060016000848152602001908152602001600020600080820160006101000a81549073ffffffffffffffffffffffffffffffffffffffff0219169055600182016000905560028201600090556003820160006101000a81549060ff0219169055600482016000905560058201600090555050612a3281600260003373ffffffffffffffffffffffffffffffffffffffff1673ffffffffffffffffffffffffffffffffffffffff1681526020019081526020016000205461293a90919063ffffffff16565b600260003373ffffffffffffffffffffffffffffffffffffffff1673ffffffffffffffffffffffffffffffffffffffff168152602001908152602001600020819055508173ffffffffffffffffffffffffffffffffffffffff163373ffffffffffffffffffffffffffffffffffffffff167f76c43e10d4c1f398cc73639241b97adf5378c594ba513bff2061763124cc7ea5836040518082815260200191505060405180910390a3505050565b600082821115612aeb57fe5b81830390509291505056fe54686520636f6e747261637420697320646561637469766174656420616e642063616e2774206265206d616465206f7065726174696f6e616c206f7220706175736564596f75206d757374207769746864726177206120706f73697469766520616d6f756e744120706f7369746976652076616c7565206e6565647320746f206265206465706f7369746564596f7520686176652070726576696f75736c7920757365642074686973206d6f7665202f2070617373776f726420636f6d62696e6174696f6e2c20706c656173652075736520616e20756e697175652070617373776f72645375626d697373696f6e20657870697279206e6f7420657863656564656420796574596f75206d75737420656e7465722065697468657220526f636b2c205061706572206f722053636973736f7273596f752063616e27742072657665616c20796f7572206d6f766520756e74696c20616674657220796f7572206f70706f6e656e7420686173207375626d69747465642061206d6f7665596f7520646f6e2774206861766520656e6f7567682066756e647320746f207375626d69742061206d6f7665207769746820746869732077616765725468657265206973206e6f206d6f7665206f75747374616e64696e6720616761696e7374206f70706f6e656e7420776869636820796f752063616e2072657665616c546865206d6f766520796f752061726520617474656d7074696e6720746f2072657665616c206973206e6f74207468652073616d6520617320746865206f6e6520796f75207375626d69746564596f7572206f70706f6e656e74207374696c6c206861732074696d6520746f2072657665616c206869732f686572206d6f7665206265666f726520796f752063616e2072657363696e64596f7520616e6420796f7572206f70706f6e656e74206861766520626f7468207375626d69747465642061206d6f76652c20627574206e6f742072657665616c65642c20796f752063616e27742072657363696e6420756e74696c20616674657220796f7520686176652072657665616c656420616e6420796f7572206f70706f6e656e74206861732065787069726564206869732f6865722072657665616c20706572696f64596f75206861766520616c7265616479207375626d69747465642061206d6f766520616761696e73742074686973206f70706f6e656e7454686520636f6e74726163742069732070617573656420616e642063616e277420626520696e746572616374656420776974685468657265206973206e6f206d6f7665206f75747374616e64696e6720616761696e7374206f70706f6e656e74596f75206d757374207761676572207468652073616d6520616d6f756e7420617320796f7572206f70706f6e656e744f6e6c79206f776e65722063616e20706572666f726d207468697320616374696f6e596f7520646f6e277420686176652061206869676820656e6f7567682062616c616e6365a165627a7a723058209cacb6869cb9c581d53175bb7d1fd3b61fb175c6f5051b7e0e16b865bccfb6f70029",
  "source": "pragma solidity 0.5.6;\n\nimport \"./Stoppable.sol\";\nimport \"./SafeMath.sol\";\n\n//@author  Richard Boeve\n//@title  Rock Paper Scissors game\ncontract RockPaperScissors is Stoppable {\n\n    //@notice  Using the SafeMath library\n    using SafeMath for uint256;\n    \n    //@notice  State variables\n    uint256 constant gameExpiry = 1 minutes;\n    \n    //@notice  Defining the move possibilities\n    enum Moves { \n        Undefined,\n        Rock, \n        Paper, \n        Scissors \n    }\n\n    //@notice  Defining the possible game outcomes\n    enum Result {\n        msgSenderWins,\n        opponentWins,\n        Draw\n    }\n\n    //@notice  Struct that contains the details of players moves\n    struct Plays {\n        address opponent;\n        uint256 wager;\n        bytes32 hashedMove;\n        Moves move;\n        uint256 timestampSubmit;\n        uint256 timestampReveal;\n    }\n    \n    //@notice  Mapping that stores players moves\n    mapping(bytes32 => Plays) public plays;\n\n    //@notice  Mapping that stores winnings \n    mapping(address => uint256) public balance;\n    \n    //@notice  Mapping that stores submitted moves hashes \n    mapping(bytes32 => bool) public submits;\n\n    //@notice  All events resulting from the contracts functions\n    event LogDeposit(address indexed sender, uint256 depositAmount);\n    event LogSubmittedMove(address indexed sender, address indexed opponent, uint256 wager);\n    event LogPlayedGame (address indexed sender, Moves move, address indexed opponent, Moves opponentMove, Result result, uint256 wager);\n    event LogRescindedMove(address indexed sender, address indexed opponent, uint256 wager);\n    event LogWithdrawBalance(address indexed sender, uint256 withdrawAmount);\n    \n    \n    //@notice  Function that allows players to deposit to their balance\n    function deposit() public onlyIfRunning payable {\n        //@dev  Verify that the funds sent are a positive value\n        require(msg.value > 0, \"A positive value needs to be deposited\");\n        //@dev  Store the funds against the users balance\n        balance[msg.sender] = balance[msg.sender].add(msg.value);\n        //@dev  Create logs\n        emit LogDeposit (msg.sender, msg.value);\n    }    \n    \n     //@notice  Function that allows a move to be submitted\n    function submitMove(address _opponentAddress, bytes32 _hashedMove, uint256 _wager) public onlyIfRunning payable {\n        //@dev  Create a unique hash to store the move\n        bytes32 storeMove = calculateStorageHashMsgSender(msg.sender, _opponentAddress);\n        //@dev  Calculate the hash your opponent has stored his move against (or where he/she will store move)\n        bytes32 storeMoveOpponent = calculateStorageHashOpponent(_opponentAddress, msg.sender);\n        //@dev  Verify that the balance and msg.value are equal or greater than the wager\n        require(balance[msg.sender].add(msg.value) >= _wager, \"You don't have enough funds to submit a move with this wager\");\n        //@dev  Verify that the password / move combination hasn't been used before\n        require(submits[_hashedMove] == false, \"You have previously used this move / password combination, please use an unique password\");\n        //@dev  Verify that there is no existing move for sender against the opponent\n        require(plays[storeMove].opponent == address(0), \"You have already submitted a move against this opponent\");\n        //@dev  Verify if the opponent already has submitted a move and if they have, that it has the same wager\n        if (plays[storeMoveOpponent].opponent == msg.sender) {\n            require(plays[storeMoveOpponent].wager == _wager, \"You must wager the same amount as your opponent\");\n        }\n        //@dev  Set the new balance\n        balance[msg.sender] = balance[msg.sender].add(msg.value).sub(_wager);\n        //@dev  Store the move\n        Plays storage currentMove = plays[storeMove];\n        currentMove.opponent = _opponentAddress;\n        currentMove.wager = _wager;\n        currentMove.hashedMove = _hashedMove;\n        currentMove.timestampSubmit = now;\n        //@dev  Set the hashed submit to true so it can't be used again\n        submits[_hashedMove] = true;\n        //@dev  Create logs\n        emit LogSubmittedMove(msg.sender, _opponentAddress, _wager);\n    }\n    \n    //Function that allows a player to reveal their move, but only if the opponent has also submitted a move\n    function revealMove(address _opponentAddress, Moves _move, bytes32 _password) public onlyIfRunning {\n        //@dev  Calculate hash against which the move is stored\n        bytes32 msgSenderDetails = calculateStorageHashMsgSender(msg.sender, _opponentAddress);\n        //@dev  Calculate the hash your opponent has stored his move against\n        bytes32 opponentDetails = calculateStorageHashOpponent(_opponentAddress, msg.sender);\n        //@dev  Verify that msg.sender has stored a move against opponent\n        require(plays[msgSenderDetails].opponent == _opponentAddress, \n        \"There is no move outstanding against opponent which you can reveal\");\n        //@dev  Verify that the opponent has stored a move against msg.sender\n        require(plays[opponentDetails].opponent == msg.sender, \n        \"You can't reveal your move until after your opponent has submitted a move\");\n        //@dev  Verify that the hash is correct\n        require(plays[msgSenderDetails].hashedMove == generateHashedMove(_move, _password), \n        \"The move you are attempting to reveal is not the same as the one you submited\");\n        Plays storage saveMove = plays[msgSenderDetails];\n        saveMove.move = _move;\n        saveMove.timestampReveal = now;\n        //If both players have revealed the move, play the game\n        if (plays[msgSenderDetails].move != Moves.Undefined && plays[opponentDetails].move != Moves.Undefined) {\n            playGame(msgSenderDetails, opponentDetails, _opponentAddress, _move);\n        }\n    }\n\n    function playGame(bytes32 msgSenderDetails, bytes32 opponentDetails, address _opponent, Moves _move) public onlyIfRunning returns (Result resultOfGame) {\n        //@dev  Retrieve opponents move\n        Moves moveOpponent = plays[opponentDetails].move;\n        //@dev  Retrieve wager\n        uint256 wager = plays[msgSenderDetails].wager;\n        //@dev  Call function which will determine which player has the winning move\n        Result gameResult = calculateWin(_move, moveOpponent); \n        //@dev  Delete the moves of both players (so they can play again)\n        delete plays[msgSenderDetails];\n        delete plays[opponentDetails];\n        //@dev  Create logs\n        emit LogPlayedGame(msg.sender, _move, _opponent, moveOpponent, gameResult, wager);\n        //@dev  Assign wager to winning players balance and decrease balance of losing player\n        if (gameResult == Result.msgSenderWins) {\n            balance[msg.sender] = balance[msg.sender].add((wager.mul(2)));\n            return Result.msgSenderWins;\n        } else if (gameResult == Result.opponentWins) {\n            balance[_opponent] = balance[_opponent].add((wager.mul(2)));\n            return Result.opponentWins;\n        } else {\n            balance[msg.sender] = balance[msg.sender].add(wager);\n            balance[_opponent] = balance[_opponent].add(wager);\n            return Result.Draw;\n        }\n    }\n    \n    //@notice  Function that allows a played move to be rescinded when opponent doesn't submit move within a week\n    //@notice  or when move doesn't get revealed within a week of msg.sender revealing\n    function rescindMove(address _opponent) public onlyIfRunning {\n        //@dev  Calculate hash against which the move is stored\n        bytes32 msgSenderDetails = calculateStorageHashMsgSender(msg.sender, _opponent);\n        //@dev  Calculate the hash your opponent has stored his move against\n        bytes32 opponentDetails = calculateStorageHashOpponent(_opponent, msg.sender);\n        //@dev  Verify there is a move stored against opponent\n        require(plays[msgSenderDetails].opponent == _opponent, \"There is no move outstanding against opponent\");\n        //@dev  If the opponent has not submitted a move\n        if (plays[opponentDetails].opponent == address(0)) {\n            //@dev Then verfiy if the expiry period has been exceded and if it has, call returnWager function\n            require(plays[msgSenderDetails].timestampSubmit.add(gameExpiry) < now, \"Submission expiry not exceeded yet\"); {\n            returnWager(msgSenderDetails, _opponent);\n            } \n        }    \n        //@dev  If the opponent has submitted a move\n        else if (plays[opponentDetails].opponent == msg.sender) {\n            //@dev  And if message sender has not revealed his/her move yet, then don't allow to rescind\n            if (plays[msgSenderDetails].move == Moves.Undefined) {\n                require(plays[msgSenderDetails].move != Moves.Undefined, \n                \"You and your opponent have both submitted a move, but not revealed, you can't rescind until after you have revealed and your opponent has expired his/her reveal period\");\n            //@dev  If the message sender has revealed a move and the opponent hasn't, allow to rescind after expiry has been reached\n            } else if (plays[msgSenderDetails].move != Moves.Undefined) {\n                require(plays[opponentDetails].move == Moves.Undefined && plays[msgSenderDetails].timestampReveal.add(gameExpiry) < now, \n                \"Your opponent still has time to reveal his/her move before you can rescind\");\n                returnWager(msgSenderDetails, _opponent);\n            }\n        }\n    }\n     \n    //@notice  Function that allows a player to withdraw his/her balance\n    function withdrawBalance(uint256 amount) public onlyIfNotPaused { \n        //@dev  Verify that the amount is positive\n        require(amount > 0, \"You must withdraw a positive amount\");\n        //@dev  Verify that the amount is not greater than the balance\n        require(balance[msg.sender] >= amount, \"You don't have a high enough balance\");\n        //@dev  Decrease balance \n        balance[msg.sender] = balance[msg.sender].sub(amount);\n        //@dev  Transfer balance to sender\n        address(msg.sender).transfer(amount);\n        //@dev  Create logs\n        emit LogWithdrawBalance(msg.sender, amount);\n    }    \n    \n    //@notice  Retrieves contract balance - just for Remix\n    function getContractBalance() public view returns (uint256) {\n        return address(this).balance;\n    }\n    \n    //Function that allows a move with password to be hashed\n    function generateHashedMove(Moves _move, bytes32 _password) view public returns (bytes32) {\n        //Verify that the move and password have been populated\n        require(_move == Moves.Rock || _move == Moves.Paper || _move == Moves.Scissors, \"You must enter either Rock, Paper or Scissors\");\n        require(_password != 0, \"Entering a password is mandatory\");\n        return keccak256(abi.encodePacked(this, msg.sender, _move, _password));\n    }\n    \n    //@notice  Function that calculates the hash against which moves are stored in the mapping for the player\n    function calculateStorageHashMsgSender(address _msgSender, address _opponentAddress) pure public returns (bytes32 storageHashPlayer) {\n        bytes32 storeMove = keccak256(abi.encodePacked(_msgSender, _opponentAddress));\n        return storeMove;\n    }\n    \n    //@notice  Function that calculates the hash against which moves are stored in the mapping for the opponent\n    function calculateStorageHashOpponent(address _opponentAddress, address _msgSender) pure public returns (bytes32 storageHashOpponent) {\n        bytes32 storeMove = keccak256(abi.encodePacked(_opponentAddress, _msgSender));\n        return storeMove;\n    }\n    \n    //@notice  Function that calculates the winning move\n    function calculateWin(Moves _move1, Moves _move2) pure internal returns (Result result) {\n        if (_move1 == _move2) {\n            return Result.Draw;\n        } else if (_move1 == Moves.Rock && _move2 == Moves.Paper) {\n            return Result.opponentWins;\n        } else if (_move1 == Moves.Paper && _move2 == Moves.Scissors) {\n            return Result.opponentWins;\n        } else if (_move1 == Moves.Scissors && _move2 == Moves.Rock) {\n            return Result.opponentWins;\n        } else if (_move1 == Moves.Paper && _move2 == Moves.Rock) {\n            return Result.msgSenderWins;\n        } else if (_move1 == Moves.Scissors && _move2 == Moves.Paper) {\n            return Result.msgSenderWins;\n        } else if (_move1 == Moves.Rock && _move2 == Moves.Scissors) {\n            return Result.msgSenderWins;\n        }\n    }\n    \n    //@notice  Function that returns wagers from rescinded moves to message sender       \n    function returnWager(bytes32 _msgSenderDetails, address _opponent) internal {\n        //@dev  Delete the move\n        uint256 wager = plays[_msgSenderDetails].wager;\n        delete plays[_msgSenderDetails];\n        //@dev  Return the wager to senders balance\n        balance[msg.sender] = balance[msg.sender].add(wager);\n        //@dev  Create logs\n        emit LogRescindedMove(msg.sender, _opponent, wager);\n    }\n\n}",
  "sourcePath": "/home/richard/workspace/RockPaperScissors/contracts/RockPaperScissors.sol",
  "compiler": {
    "name": "solc",
    "version": "0.5.6+commit.b259423e.Emscripten.clang"
  },
  "schemaVersion": "3.0.3",
  "updatedAt": "2019-04-25T03:27:55.613Z",
  "devdoc": {
    "methods": {}
  },
  "userdoc": {
    "methods": {}
  }
}