{
  "contractName": "RockPaperScissors",
  "abi": [
    {
      "constant": false,
      "inputs": [
        {
          "name": "newState",
          "type": "uint8"
        }
      ],
      "name": "setState",
      "outputs": [],
      "payable": false,
      "stateMutability": "nonpayable",
      "type": "function",
      "signature": "0x56de96db"
    },
    {
      "constant": true,
      "inputs": [
        {
          "name": "",
          "type": "bytes32"
        }
      ],
      "name": "plays",
      "outputs": [
        {
          "name": "opponent",
          "type": "address"
        },
        {
          "name": "wager",
          "type": "uint256"
        },
        {
          "name": "hashedMove",
          "type": "bytes32"
        },
        {
          "name": "move",
          "type": "uint8"
        },
        {
          "name": "timestampSubmit",
          "type": "uint256"
        },
        {
          "name": "timestampReveal",
          "type": "uint256"
        }
      ],
      "payable": false,
      "stateMutability": "view",
      "type": "function",
      "signature": "0x603448b0"
    },
    {
      "constant": true,
      "inputs": [],
      "name": "getOwner",
      "outputs": [
        {
          "name": "",
          "type": "address"
        }
      ],
      "payable": false,
      "stateMutability": "view",
      "type": "function",
      "signature": "0x893d20e8"
    },
    {
      "constant": true,
      "inputs": [
        {
          "name": "",
          "type": "bytes32"
        }
      ],
      "name": "submits",
      "outputs": [
        {
          "name": "",
          "type": "bool"
        }
      ],
      "payable": false,
      "stateMutability": "view",
      "type": "function",
      "signature": "0x9ace8452"
    },
    {
      "constant": false,
      "inputs": [
        {
          "name": "_newOwner",
          "type": "address"
        }
      ],
      "name": "changeOwner",
      "outputs": [],
      "payable": false,
      "stateMutability": "nonpayable",
      "type": "function",
      "signature": "0xa6f9dae1"
    },
    {
      "constant": true,
      "inputs": [],
      "name": "state",
      "outputs": [
        {
          "name": "",
          "type": "uint8"
        }
      ],
      "payable": false,
      "stateMutability": "view",
      "type": "function",
      "signature": "0xc19d93fb"
    },
    {
      "constant": true,
      "inputs": [
        {
          "name": "",
          "type": "address"
        }
      ],
      "name": "balance",
      "outputs": [
        {
          "name": "",
          "type": "uint256"
        }
      ],
      "payable": false,
      "stateMutability": "view",
      "type": "function",
      "signature": "0xe3d670d7"
    },
    {
      "anonymous": false,
      "inputs": [
        {
          "indexed": true,
          "name": "sender",
          "type": "address"
        },
        {
          "indexed": false,
          "name": "depositAmount",
          "type": "uint256"
        }
      ],
      "name": "LogDeposit",
      "type": "event",
      "signature": "0x1b851e1031ef35a238e6c67d0c7991162390df915f70eaf9098dbf0b175a6198"
    },
    {
      "anonymous": false,
      "inputs": [
        {
          "indexed": true,
          "name": "sender",
          "type": "address"
        },
        {
          "indexed": true,
          "name": "opponent",
          "type": "address"
        },
        {
          "indexed": false,
          "name": "wager",
          "type": "uint256"
        }
      ],
      "name": "LogSubmittedMove",
      "type": "event",
      "signature": "0xb54cbe514a8192e73cc6a7e267a560c3fce7d98ddd0f0d039ee4634576e9a12c"
    },
    {
      "anonymous": false,
      "inputs": [
        {
          "indexed": true,
          "name": "sender",
          "type": "address"
        },
        {
          "indexed": true,
          "name": "opponent",
          "type": "address"
        },
        {
          "indexed": false,
          "name": "result",
          "type": "uint8"
        },
        {
          "indexed": false,
          "name": "wager",
          "type": "uint256"
        }
      ],
      "name": "LogPlayedGame",
      "type": "event",
      "signature": "0xd29318c7ba038af9c92173eb02eb0d48558d64835209dc2de0f1056234d0ca76"
    },
    {
      "anonymous": false,
      "inputs": [
        {
          "indexed": true,
          "name": "sender",
          "type": "address"
        },
        {
          "indexed": true,
          "name": "opponent",
          "type": "address"
        },
        {
          "indexed": false,
          "name": "wager",
          "type": "uint256"
        }
      ],
      "name": "LogRescindedMove",
      "type": "event",
      "signature": "0x76c43e10d4c1f398cc73639241b97adf5378c594ba513bff2061763124cc7ea5"
    },
    {
      "anonymous": false,
      "inputs": [
        {
          "indexed": true,
          "name": "sender",
          "type": "address"
        },
        {
          "indexed": false,
          "name": "withdrawAmount",
          "type": "uint256"
        }
      ],
      "name": "LogWithdrawBalance",
      "type": "event",
      "signature": "0x91cf1c01784dbeae5be5abcccfa320284358a61ca55698a98075e827a9517abd"
    },
    {
      "anonymous": false,
      "inputs": [
        {
          "indexed": true,
          "name": "sender",
          "type": "address"
        },
        {
          "indexed": true,
          "name": "newState",
          "type": "uint8"
        }
      ],
      "name": "LogSetState",
      "type": "event",
      "signature": "0x8443aae512b274bfa1e5d65661bd8f0b4ffbc66eee3556711cce411fcf304784"
    },
    {
      "anonymous": false,
      "inputs": [
        {
          "indexed": true,
          "name": "oldOwner",
          "type": "address"
        },
        {
          "indexed": true,
          "name": "newOwner",
          "type": "address"
        }
      ],
      "name": "LogChangeOwner",
      "type": "event",
      "signature": "0x96b36bedce75759b139551b10b3d2e1e863dbbfbdc30f9f9e374bb24431d5da2"
    },
    {
      "constant": false,
      "inputs": [],
      "name": "deposit",
      "outputs": [],
      "payable": true,
      "stateMutability": "payable",
      "type": "function",
      "signature": "0xd0e30db0"
    },
    {
      "constant": false,
      "inputs": [
        {
          "name": "_opponentAddress",
          "type": "address"
        },
        {
          "name": "_hashedMove",
          "type": "bytes32"
        },
        {
          "name": "_wager",
          "type": "uint256"
        }
      ],
      "name": "submitMove",
      "outputs": [],
      "payable": true,
      "stateMutability": "payable",
      "type": "function",
      "signature": "0x9c003f1f"
    },
    {
      "constant": false,
      "inputs": [
        {
          "name": "_opponentAddress",
          "type": "address"
        },
        {
          "name": "_move",
          "type": "uint8"
        },
        {
          "name": "_password",
          "type": "bytes32"
        }
      ],
      "name": "revealMove",
      "outputs": [],
      "payable": false,
      "stateMutability": "nonpayable",
      "type": "function",
      "signature": "0x938e1758"
    },
    {
      "constant": false,
      "inputs": [
        {
          "name": "msgSenderDetails",
          "type": "bytes32"
        },
        {
          "name": "opponentDetails",
          "type": "bytes32"
        },
        {
          "name": "_opponent",
          "type": "address"
        },
        {
          "name": "_move",
          "type": "uint8"
        }
      ],
      "name": "playGame",
      "outputs": [
        {
          "name": "resultOfGame",
          "type": "uint8"
        }
      ],
      "payable": false,
      "stateMutability": "nonpayable",
      "type": "function",
      "signature": "0x1109a794"
    },
    {
      "constant": false,
      "inputs": [
        {
          "name": "_opponent",
          "type": "address"
        }
      ],
      "name": "rescindMove",
      "outputs": [],
      "payable": false,
      "stateMutability": "nonpayable",
      "type": "function",
      "signature": "0x74a25e73"
    },
    {
      "constant": false,
      "inputs": [
        {
          "name": "amount",
          "type": "uint256"
        }
      ],
      "name": "withdrawBalance",
      "outputs": [],
      "payable": false,
      "stateMutability": "nonpayable",
      "type": "function",
      "signature": "0xda76d5cd"
    },
    {
      "constant": true,
      "inputs": [],
      "name": "getContractBalance",
      "outputs": [
        {
          "name": "",
          "type": "uint256"
        }
      ],
      "payable": false,
      "stateMutability": "view",
      "type": "function",
      "signature": "0x6f9fb98a"
    },
    {
      "constant": true,
      "inputs": [
        {
          "name": "_move",
          "type": "uint8"
        },
        {
          "name": "_password",
          "type": "bytes32"
        }
      ],
      "name": "generateHashedMove",
      "outputs": [
        {
          "name": "",
          "type": "bytes32"
        }
      ],
      "payable": false,
      "stateMutability": "view",
      "type": "function",
      "signature": "0x7bc945c4"
    }
  ],
  "bytecode": "0x6080604052336000806101000a81548173ffffffffffffffffffffffffffffffffffffffff021916908373ffffffffffffffffffffffffffffffffffffffff16021790555060008060146101000a81548160ff0219169083600281111561006257fe5b02179055506130ee806100766000396000f3fe608060405260043610610105576000357c010000000000000000000000000000000000000000000000000000000090048063938e1758116100a7578063c19d93fb11610076578063c19d93fb1461051b578063d0e30db014610554578063da76d5cd1461055e578063e3d670d71461059957610105565b8063938e1758146103b75780639ace84521461041f5780639c003f1f14610472578063a6f9dae1146104ca57610105565b80636f9fb98a116100e35780636f9fb98a1461028857806374a25e73146102b35780637bc945c414610304578063893d20e81461036057610105565b80631109a7941461010a57806356de96db1461019e578063603448b0146101dc575b600080fd5b34801561011657600080fd5b5061017a6004803603608081101561012d57600080fd5b810190808035906020019092919080359060200190929190803573ffffffffffffffffffffffffffffffffffffffff169060200190929190803560ff1690602001909291905050506105fe565b6040518082600281111561018a57fe5b60ff16815260200191505060405180910390f35b3480156101aa57600080fd5b506101da600480360360208110156101c157600080fd5b81019080803560ff169060200190929190505050610b28565b005b3480156101e857600080fd5b50610215600480360360208110156101ff57600080fd5b8101908080359060200190929190505050610cc0565b604051808773ffffffffffffffffffffffffffffffffffffffff1673ffffffffffffffffffffffffffffffffffffffff16815260200186815260200185815260200184600381111561026357fe5b60ff168152602001838152602001828152602001965050505050505060405180910390f35b34801561029457600080fd5b5061029d610d29565b6040518082815260200191505060405180910390f35b3480156102bf57600080fd5b50610302600480360360208110156102d657600080fd5b81019080803573ffffffffffffffffffffffffffffffffffffffff169060200190929190505050610d48565b005b34801561031057600080fd5b5061034a6004803603604081101561032757600080fd5b81019080803560ff16906020019092919080359060200190929190505050611348565b6040518082815260200191505060405180910390f35b34801561036c57600080fd5b506103756115fb565b604051808273ffffffffffffffffffffffffffffffffffffffff1673ffffffffffffffffffffffffffffffffffffffff16815260200191505060405180910390f35b3480156103c357600080fd5b5061041d600480360360608110156103da57600080fd5b81019080803573ffffffffffffffffffffffffffffffffffffffff169060200190929190803560ff16906020019092919080359060200190929190505050611624565b005b34801561042b57600080fd5b506104586004803603602081101561044257600080fd5b8101908080359060200190929190505050611ae0565b604051808215151515815260200191505060405180910390f35b6104c86004803603606081101561048857600080fd5b81019080803573ffffffffffffffffffffffffffffffffffffffff1690602001909291908035906020019092919080359060200190929190505050611b00565b005b3480156104d657600080fd5b50610519600480360360208110156104ed57600080fd5b81019080803573ffffffffffffffffffffffffffffffffffffffff16906020019092919050505061215d565b005b34801561052757600080fd5b50610530612405565b6040518082600281111561054057fe5b60ff16815260200191505060405180910390f35b61055c612418565b005b34801561056a57600080fd5b506105976004803603602081101561058157600080fd5b81019080803590602001909291905050506125f1565b005b3480156105a557600080fd5b506105e8600480360360208110156105bc57600080fd5b81019080803573ffffffffffffffffffffffffffffffffffffffff16906020019092919050505061288e565b6040518082815260200191505060405180910390f35b600080600281111561060c57fe5b600060149054906101000a900460ff16600281111561062757fe5b1461069a576040517f08c379a000000000000000000000000000000000000000000000000000000000815260040180806020018281038252601f8152602001807f54686520636f6e7472616374206973206e6f74206f7065726174696f6e616c0081525060200191505060405180910390fd5b60006001600086815260200190815260200160002060030160009054906101000a900460ff16905060006001600088815260200190815260200160002060010154905060006106e985846128a6565b905060016000898152602001908152602001600020600080820160006101000a81549073ffffffffffffffffffffffffffffffffffffffff0219169055600182016000905560028201600090556003820160006101000a81549060ff021916905560048201600090556005820160009055505060016000888152602001908152602001600020600080820160006101000a81549073ffffffffffffffffffffffffffffffffffffffff0219169055600182016000905560028201600090556003820160006101000a81549060ff02191690556004820160009055600582016000905550508573ffffffffffffffffffffffffffffffffffffffff163373ffffffffffffffffffffffffffffffffffffffff167fd29318c7ba038af9c92173eb02eb0d48558d64835209dc2de0f1056234d0ca7683856040518083600281111561082e57fe5b60ff1681526020018281526020019250505060405180910390a36000600281111561085557fe5b81600281111561086157fe5b141561091b576108cc61087e600284612a8e90919063ffffffff16565b600260003373ffffffffffffffffffffffffffffffffffffffff1673ffffffffffffffffffffffffffffffffffffffff16815260200190815260200160002054612ac290919063ffffffff16565b600260003373ffffffffffffffffffffffffffffffffffffffff1673ffffffffffffffffffffffffffffffffffffffff1681526020019081526020016000208190555060009350505050610b20565b6001600281111561092857fe5b81600281111561093457fe5b14156109ee5761099f610951600284612a8e90919063ffffffff16565b600260008973ffffffffffffffffffffffffffffffffffffffff1673ffffffffffffffffffffffffffffffffffffffff16815260200190815260200160002054612ac290919063ffffffff16565b600260008873ffffffffffffffffffffffffffffffffffffffff1673ffffffffffffffffffffffffffffffffffffffff1681526020019081526020016000208190555060019350505050610b20565b610a4082600260003373ffffffffffffffffffffffffffffffffffffffff1673ffffffffffffffffffffffffffffffffffffffff16815260200190815260200160002054612ac290919063ffffffff16565b600260003373ffffffffffffffffffffffffffffffffffffffff1673ffffffffffffffffffffffffffffffffffffffff16815260200190815260200160002081905550610ad582600260008973ffffffffffffffffffffffffffffffffffffffff1673ffffffffffffffffffffffffffffffffffffffff16815260200190815260200160002054612ac290919063ffffffff16565b600260008873ffffffffffffffffffffffffffffffffffffffff1673ffffffffffffffffffffffffffffffffffffffff16815260200190815260200160002081905550600293505050505b949350505050565b6000809054906101000a900473ffffffffffffffffffffffffffffffffffffffff1673ffffffffffffffffffffffffffffffffffffffff163373ffffffffffffffffffffffffffffffffffffffff1614610bcd576040517f08c379a000000000000000000000000000000000000000000000000000000000815260040180806020018281038252602281526020018061307d6022913960400191505060405180910390fd5b600280811115610bd957fe5b600060149054906101000a900460ff166002811115610bf457fe5b1415610c4b576040517f08c379a0000000000000000000000000000000000000000000000000000000008152600401808060200182810382526043815260200180612c7f6043913960600191505060405180910390fd5b80600060146101000a81548160ff02191690836002811115610c6957fe5b0217905550806002811115610c7a57fe5b3373ffffffffffffffffffffffffffffffffffffffff167f8443aae512b274bfa1e5d65661bd8f0b4ffbc66eee3556711cce411fcf30478460405160405180910390a350565b60016020528060005260406000206000915090508060000160009054906101000a900473ffffffffffffffffffffffffffffffffffffffff16908060010154908060020154908060030160009054906101000a900460ff16908060040154908060050154905086565b60003073ffffffffffffffffffffffffffffffffffffffff1631905090565b60006002811115610d5557fe5b600060149054906101000a900460ff166002811115610d7057fe5b14610de3576040517f08c379a000000000000000000000000000000000000000000000000000000000815260040180806020018281038252601f8152602001807f54686520636f6e7472616374206973206e6f74206f7065726174696f6e616c0081525060200191505060405180910390fd5b60003382604051602001808373ffffffffffffffffffffffffffffffffffffffff1673ffffffffffffffffffffffffffffffffffffffff166c010000000000000000000000000281526014018273ffffffffffffffffffffffffffffffffffffffff1673ffffffffffffffffffffffffffffffffffffffff166c010000000000000000000000000281526014019250505060405160208183030381529060405280519060200120905060008233604051602001808373ffffffffffffffffffffffffffffffffffffffff1673ffffffffffffffffffffffffffffffffffffffff166c010000000000000000000000000281526014018273ffffffffffffffffffffffffffffffffffffffff1673ffffffffffffffffffffffffffffffffffffffff166c01000000000000000000000000028152601401925050506040516020818303038152906040528051906020012090508273ffffffffffffffffffffffffffffffffffffffff166001600084815260200190815260200160002060000160009054906101000a900473ffffffffffffffffffffffffffffffffffffffff1673ffffffffffffffffffffffffffffffffffffffff1614610fef576040517f08c379a000000000000000000000000000000000000000000000000000000000815260040180806020018281038252602d815260200180613021602d913960400191505060405180910390fd5b600073ffffffffffffffffffffffffffffffffffffffff166001600083815260200190815260200160002060000160009054906101000a900473ffffffffffffffffffffffffffffffffffffffff1673ffffffffffffffffffffffffffffffffffffffff1614156110ea5742611085603c6001600086815260200190815260200160002060040154612ac290919063ffffffff16565b106110db576040517f08c379a0000000000000000000000000000000000000000000000000000000008152600401808060200182810382526022815260200180612d636022913960400191505060405180910390fd5b6110e58284612adc565b611343565b3373ffffffffffffffffffffffffffffffffffffffff166001600083815260200190815260200160002060000160009054906101000a900473ffffffffffffffffffffffffffffffffffffffff1673ffffffffffffffffffffffffffffffffffffffff161415611342576000600381111561116157fe5b6001600084815260200190815260200160002060030160009054906101000a900460ff16600381111561119057fe5b141561122e57600060038111156111a357fe5b6001600084815260200190815260200160002060030160009054906101000a900460ff1660038111156111d257fe5b1415611229576040517f08c379a00000000000000000000000000000000000000000000000000000000081526004018080602001828103825260a7815260200180612f1060a7913960c00191505060405180910390fd5b611341565b6000600381111561123b57fe5b6001600084815260200190815260200160002060030160009054906101000a900460ff16600381111561126a57fe5b14611340576000600381111561127c57fe5b6001600083815260200190815260200160002060030160009054906101000a900460ff1660038111156112ab57fe5b1480156112e05750426112de603c6001600086815260200190815260200160002060050154612ac290919063ffffffff16565b105b611335576040517f08c379a000000000000000000000000000000000000000000000000000000000815260040180806020018281038252604a815260200180612ec6604a913960600191505060405180910390fd5b61133f8284612adc565b5b5b5b5b505050565b600080600281111561135657fe5b600060149054906101000a900460ff16600281111561137157fe5b146113e4576040517f08c379a000000000000000000000000000000000000000000000000000000000815260040180806020018281038252601f8152602001807f54686520636f6e7472616374206973206e6f74206f7065726174696f6e616c0081525060200191505060405180910390fd5b600160038111156113f157fe5b8360038111156113fd57fe5b148061141f57506002600381111561141157fe5b83600381111561141d57fe5b145b8061143f575060038081111561143157fe5b83600381111561143d57fe5b145b611494576040517f08c379a000000000000000000000000000000000000000000000000000000000815260040180806020018281038252602d815260200180612d85602d913960400191505060405180910390fd5b600060010282141561150e576040517f08c379a00000000000000000000000000000000000000000000000000000000081526004018080602001828103825260208152602001807f456e746572696e6720612070617373776f7264206973206d616e6461746f727981525060200191505060405180910390fd5b30338484604051602001808573ffffffffffffffffffffffffffffffffffffffff1673ffffffffffffffffffffffffffffffffffffffff166c010000000000000000000000000281526014018473ffffffffffffffffffffffffffffffffffffffff1673ffffffffffffffffffffffffffffffffffffffff166c010000000000000000000000000281526014018360038111156115a757fe5b60ff167f010000000000000000000000000000000000000000000000000000000000000002815260010182815260200194505050505060405160208183030381529060405280519060200120905092915050565b60008060009054906101000a900473ffffffffffffffffffffffffffffffffffffffff16905090565b6000600281111561163157fe5b600060149054906101000a900460ff16600281111561164c57fe5b146116bf576040517f08c379a000000000000000000000000000000000000000000000000000000000815260040180806020018281038252601f8152602001807f54686520636f6e7472616374206973206e6f74206f7065726174696f6e616c0081525060200191505060405180910390fd5b60003384604051602001808373ffffffffffffffffffffffffffffffffffffffff1673ffffffffffffffffffffffffffffffffffffffff166c010000000000000000000000000281526014018273ffffffffffffffffffffffffffffffffffffffff1673ffffffffffffffffffffffffffffffffffffffff166c010000000000000000000000000281526014019250505060405160208183030381529060405280519060200120905060008433604051602001808373ffffffffffffffffffffffffffffffffffffffff1673ffffffffffffffffffffffffffffffffffffffff166c010000000000000000000000000281526014018273ffffffffffffffffffffffffffffffffffffffff1673ffffffffffffffffffffffffffffffffffffffff166c01000000000000000000000000028152601401925050506040516020818303038152906040528051906020012090508473ffffffffffffffffffffffffffffffffffffffff166001600084815260200190815260200160002060000160009054906101000a900473ffffffffffffffffffffffffffffffffffffffff1673ffffffffffffffffffffffffffffffffffffffff16146118cb576040517f08c379a0000000000000000000000000000000000000000000000000000000008152600401808060200182810382526042815260200180612e376042913960600191505060405180910390fd5b3373ffffffffffffffffffffffffffffffffffffffff166001600083815260200190815260200160002060000160009054906101000a900473ffffffffffffffffffffffffffffffffffffffff1673ffffffffffffffffffffffffffffffffffffffff1614611985576040517f08c379a0000000000000000000000000000000000000000000000000000000008152600401808060200182810382526049815260200180612db26049913960600191505060405180910390fd5b61198f8484611348565b6001600084815260200190815260200160002060020154146119fc576040517f08c379a000000000000000000000000000000000000000000000000000000000815260040180806020018281038252604d815260200180612e79604d913960600191505060405180910390fd5b6000600160008481526020019081526020016000209050848160030160006101000a81548160ff02191690836003811115611a3357fe5b021790555042816005018190555060006003811115611a4e57fe5b6001600085815260200190815260200160002060030160009054906101000a900460ff166003811115611a7d57fe5b14158015611ac5575060006003811115611a9357fe5b6001600084815260200190815260200160002060030160009054906101000a900460ff166003811115611ac257fe5b14155b15611ad857611ad6838388886105fe565b505b505050505050565b60036020528060005260406000206000915054906101000a900460ff1681565b60006002811115611b0d57fe5b600060149054906101000a900460ff166002811115611b2857fe5b14611b9b576040517f08c379a000000000000000000000000000000000000000000000000000000000815260040180806020018281038252601f8152602001807f54686520636f6e7472616374206973206e6f74206f7065726174696f6e616c0081525060200191505060405180910390fd5b60003384604051602001808373ffffffffffffffffffffffffffffffffffffffff1673ffffffffffffffffffffffffffffffffffffffff166c010000000000000000000000000281526014018273ffffffffffffffffffffffffffffffffffffffff1673ffffffffffffffffffffffffffffffffffffffff166c010000000000000000000000000281526014019250505060405160208183030381529060405280519060200120905060008433604051602001808373ffffffffffffffffffffffffffffffffffffffff1673ffffffffffffffffffffffffffffffffffffffff166c010000000000000000000000000281526014018273ffffffffffffffffffffffffffffffffffffffff1673ffffffffffffffffffffffffffffffffffffffff166c010000000000000000000000000281526014019250505060405160208183030381529060405280519060200120905082611d4034600260003373ffffffffffffffffffffffffffffffffffffffff1673ffffffffffffffffffffffffffffffffffffffff16815260200190815260200160002054612ac290919063ffffffff16565b1015611d97576040517f08c379a000000000000000000000000000000000000000000000000000000000815260040180806020018281038252603c815260200180612dfb603c913960400191505060405180910390fd5b600015156003600086815260200190815260200160002060009054906101000a900460ff16151514611e14576040517f08c379a0000000000000000000000000000000000000000000000000000000008152600401808060200182810382526058815260200180612d0b6058913960600191505060405180910390fd5b600073ffffffffffffffffffffffffffffffffffffffff166001600084815260200190815260200160002060000160009054906101000a900473ffffffffffffffffffffffffffffffffffffffff1673ffffffffffffffffffffffffffffffffffffffff1614611ecf576040517f08c379a0000000000000000000000000000000000000000000000000000000008152600401808060200182810382526037815260200180612fb76037913960400191505060405180910390fd5b3373ffffffffffffffffffffffffffffffffffffffff166001600083815260200190815260200160002060000160009054906101000a900473ffffffffffffffffffffffffffffffffffffffff1673ffffffffffffffffffffffffffffffffffffffff161415611fa85782600160008381526020019081526020016000206001015414611fa7576040517f08c379a000000000000000000000000000000000000000000000000000000000815260040180806020018281038252602f81526020018061304e602f913960400191505060405180910390fd5b5b61200c83611ffe34600260003373ffffffffffffffffffffffffffffffffffffffff1673ffffffffffffffffffffffffffffffffffffffff16815260200190815260200160002054612ac290919063ffffffff16565b612c6790919063ffffffff16565b600260003373ffffffffffffffffffffffffffffffffffffffff1673ffffffffffffffffffffffffffffffffffffffff168152602001908152602001600020819055506000600160008481526020019081526020016000209050858160000160006101000a81548173ffffffffffffffffffffffffffffffffffffffff021916908373ffffffffffffffffffffffffffffffffffffffff16021790555083816001018190555084816002018190555042816004018190555060016003600087815260200190815260200160002060006101000a81548160ff0219169083151502179055508573ffffffffffffffffffffffffffffffffffffffff163373ffffffffffffffffffffffffffffffffffffffff167fb54cbe514a8192e73cc6a7e267a560c3fce7d98ddd0f0d039ee4634576e9a12c866040518082815260200191505060405180910390a3505050505050565b6000809054906101000a900473ffffffffffffffffffffffffffffffffffffffff1673ffffffffffffffffffffffffffffffffffffffff163373ffffffffffffffffffffffffffffffffffffffff1614612202576040517f08c379a000000000000000000000000000000000000000000000000000000000815260040180806020018281038252602281526020018061307d6022913960400191505060405180910390fd5b600073ffffffffffffffffffffffffffffffffffffffff168173ffffffffffffffffffffffffffffffffffffffff1614156122a5576040517f08c379a00000000000000000000000000000000000000000000000000000000081526004018080602001828103825260138152602001807f4e6f20616464726573732070726f76696465640000000000000000000000000081525060200191505060405180910390fd5b6000809054906101000a900473ffffffffffffffffffffffffffffffffffffffff1673ffffffffffffffffffffffffffffffffffffffff168173ffffffffffffffffffffffffffffffffffffffff161415612368576040517f08c379a00000000000000000000000000000000000000000000000000000000081526004018080602001828103825260208152602001807f43757272656e74206f776e65722063616e2774206265206e6577206f776e657281525060200191505060405180910390fd5b806000806101000a81548173ffffffffffffffffffffffffffffffffffffffff021916908373ffffffffffffffffffffffffffffffffffffffff1602179055508073ffffffffffffffffffffffffffffffffffffffff163373ffffffffffffffffffffffffffffffffffffffff167f96b36bedce75759b139551b10b3d2e1e863dbbfbdc30f9f9e374bb24431d5da260405160405180910390a350565b600060149054906101000a900460ff1681565b6000600281111561242557fe5b600060149054906101000a900460ff16600281111561244057fe5b146124b3576040517f08c379a000000000000000000000000000000000000000000000000000000000815260040180806020018281038252601f8152602001807f54686520636f6e7472616374206973206e6f74206f7065726174696f6e616c0081525060200191505060405180910390fd5b6000341161250c576040517f08c379a0000000000000000000000000000000000000000000000000000000008152600401808060200182810382526026815260200180612ce56026913960400191505060405180910390fd5b61255e34600260003373ffffffffffffffffffffffffffffffffffffffff1673ffffffffffffffffffffffffffffffffffffffff16815260200190815260200160002054612ac290919063ffffffff16565b600260003373ffffffffffffffffffffffffffffffffffffffff1673ffffffffffffffffffffffffffffffffffffffff168152602001908152602001600020819055503373ffffffffffffffffffffffffffffffffffffffff167f1b851e1031ef35a238e6c67d0c7991162390df915f70eaf9098dbf0b175a6198346040518082815260200191505060405180910390a2565b600160028111156125fe57fe5b600060149054906101000a900460ff16600281111561261957fe5b1415612670576040517f08c379a0000000000000000000000000000000000000000000000000000000008152600401808060200182810382526033815260200180612fee6033913960400191505060405180910390fd5b600081116126c9576040517f08c379a0000000000000000000000000000000000000000000000000000000008152600401808060200182810382526023815260200180612cc26023913960400191505060405180910390fd5b80600260003373ffffffffffffffffffffffffffffffffffffffff1673ffffffffffffffffffffffffffffffffffffffff168152602001908152602001600020541015612761576040517f08c379a000000000000000000000000000000000000000000000000000000000815260040180806020018281038252602481526020018061309f6024913960400191505060405180910390fd5b6127b381600260003373ffffffffffffffffffffffffffffffffffffffff1673ffffffffffffffffffffffffffffffffffffffff16815260200190815260200160002054612c6790919063ffffffff16565b600260003373ffffffffffffffffffffffffffffffffffffffff1673ffffffffffffffffffffffffffffffffffffffff168152602001908152602001600020819055503373ffffffffffffffffffffffffffffffffffffffff166108fc829081150290604051600060405180830381858888f1935050505015801561283c573d6000803e3d6000fd5b503373ffffffffffffffffffffffffffffffffffffffff167f91cf1c01784dbeae5be5abcccfa320284358a61ca55698a98075e827a9517abd826040518082815260200191505060405180910390a250565b60026020528060005260406000206000915090505481565b60008160038111156128b457fe5b8360038111156128c057fe5b14156128cf5760029050612a88565b600160038111156128dc57fe5b8360038111156128e857fe5b14801561290b5750600260038111156128fd57fe5b82600381111561290957fe5b145b156129195760019050612a88565b6002600381111561292657fe5b83600381111561293257fe5b148015612954575060038081111561294657fe5b82600381111561295257fe5b145b156129625760019050612a88565b60038081111561296e57fe5b83600381111561297a57fe5b14801561299d57506001600381111561298f57fe5b82600381111561299b57fe5b145b156129ab5760019050612a88565b600260038111156129b857fe5b8360038111156129c457fe5b1480156129e75750600160038111156129d957fe5b8260038111156129e557fe5b145b156129f55760009050612a88565b600380811115612a0157fe5b836003811115612a0d57fe5b148015612a30575060026003811115612a2257fe5b826003811115612a2e57fe5b145b15612a3e5760009050612a88565b60016003811115612a4b57fe5b836003811115612a5757fe5b148015612a795750600380811115612a6b57fe5b826003811115612a7757fe5b145b15612a875760009050612a88565b5b92915050565b600080831415612aa15760009050612abc565b818302905081838281612ab057fe5b0414612ab857fe5b8090505b92915050565b6000818301905082811015612ad357fe5b80905092915050565b60006001600084815260200190815260200160002060010154905060016000848152602001908152602001600020600080820160006101000a81549073ffffffffffffffffffffffffffffffffffffffff0219169055600182016000905560028201600090556003820160006101000a81549060ff0219169055600482016000905560058201600090555050612bba81600260003373ffffffffffffffffffffffffffffffffffffffff1673ffffffffffffffffffffffffffffffffffffffff16815260200190815260200160002054612ac290919063ffffffff16565b600260003373ffffffffffffffffffffffffffffffffffffffff1673ffffffffffffffffffffffffffffffffffffffff168152602001908152602001600020819055508173ffffffffffffffffffffffffffffffffffffffff163373ffffffffffffffffffffffffffffffffffffffff167f76c43e10d4c1f398cc73639241b97adf5378c594ba513bff2061763124cc7ea5836040518082815260200191505060405180910390a3505050565b600082821115612c7357fe5b81830390509291505056fe54686520636f6e747261637420697320646561637469766174656420616e642063616e2774206265206d616465206f7065726174696f6e616c206f7220706175736564596f75206d757374207769746864726177206120706f73697469766520616d6f756e744120706f7369746976652076616c7565206e6565647320746f206265206465706f7369746564596f7520686176652070726576696f75736c7920757365642074686973206d6f7665202f2070617373776f726420636f6d62696e6174696f6e2c20706c656173652075736520616e20756e697175652070617373776f72645375626d697373696f6e20657870697279206e6f7420657863656564656420796574596f75206d75737420656e7465722065697468657220526f636b2c205061706572206f722053636973736f7273596f752063616e27742072657665616c20796f7572206d6f766520756e74696c20616674657220796f7572206f70706f6e656e7420686173207375626d69747465642061206d6f7665596f7520646f6e2774206861766520656e6f7567682066756e647320746f207375626d69742061206d6f7665207769746820746869732077616765725468657265206973206e6f206d6f7665206f75747374616e64696e6720616761696e7374206f70706f6e656e7420776869636820796f752063616e2072657665616c546865206d6f766520796f752061726520617474656d7074696e6720746f2072657665616c206973206e6f74207468652073616d6520617320746865206f6e6520796f75207375626d69746564596f7572206f70706f6e656e74207374696c6c206861732074696d6520746f2072657665616c206869732f686572206d6f7665206265666f726520796f752063616e2072657363696e64596f7520616e6420796f7572206f70706f6e656e74206861766520626f7468207375626d69747465642061206d6f76652c20627574206e6f742072657665616c65642c20796f752063616e27742072657363696e6420756e74696c20616674657220796f7520686176652072657665616c656420616e6420796f7572206f70706f6e656e74206861732065787069726564206869732f6865722072657665616c20706572696f64596f75206861766520616c7265616479207375626d69747465642061206d6f766520616761696e73742074686973206f70706f6e656e7454686520636f6e74726163742069732070617573656420616e642063616e277420626520696e746572616374656420776974685468657265206973206e6f206d6f7665206f75747374616e64696e6720616761696e7374206f70706f6e656e74596f75206d757374207761676572207468652073616d6520616d6f756e7420617320796f7572206f70706f6e656e744f6e6c79206f776e65722063616e20706572666f726d207468697320616374696f6e596f7520646f6e277420686176652061206869676820656e6f7567682062616c616e6365a165627a7a7230582020989274e3228556d1503446d9d37ccb56d9570f9c187c9945a013cbab0c75010029",
  "source": "pragma solidity 0.5.6;\n\nimport \"./Stoppable.sol\";\nimport \"./SafeMath.sol\";\n\n//@author  Richard Boeve\n//@title  Rock Paper Scissors game\ncontract RockPaperScissors is Stoppable {\n\n    //@notice  Using the SafeMath library\n    using SafeMath for uint256;\n    \n    //@notice  State variables\n    uint256 constant gameExpiry = 1 minutes;\n    \n    //@notice  Defining the move possibilities\n    enum Moves { \n        Undefined,\n        Rock, \n        Paper, \n        Scissors \n    }\n\n    //@notice  Defining the possible game outcomes\n    enum Result {\n        msgSenderWins,\n        opponentWins,\n        Draw\n    }\n\n    //@notice  Struct that contains the details of players moves\n    struct Plays {\n        address opponent;\n        uint256 wager;\n        bytes32 hashedMove;\n        Moves move;\n        uint256 timestampSubmit;\n        uint256 timestampReveal;\n    }\n    \n    //@notice  Mapping that stores players moves\n    mapping(bytes32 => Plays) public plays;\n\n    //@notice  Mapping that stores winnings \n    mapping(address => uint256) public balance;\n    \n    //@notice  Mapping that stores submitted moves hashes \n    mapping(bytes32 => bool) public submits;\n\n    //@notice  All events resulting from the contracts functions\n    event LogDeposit(address indexed sender, uint256 depositAmount);\n    event LogSubmittedMove(address indexed sender, address indexed opponent, uint256 wager);\n    event LogPlayedGame (address indexed sender, address indexed opponent, Result result, uint256 wager);\n    event LogRescindedMove(address indexed sender, address indexed opponent, uint256 wager);\n    event LogWithdrawBalance(address indexed sender, uint256 withdrawAmount);\n    \n    \n    //@notice  Function that allows players to deposit to their balance\n    function deposit() public onlyIfRunning payable {\n        //@dev  Verify that the funds sent are a positive value\n        require(msg.value > 0, \"A positive value needs to be deposited\");\n        //@dev  Store the funds against the users balance\n        balance[msg.sender] = balance[msg.sender].add(msg.value);\n        //@dev  Create logs\n        emit LogDeposit (msg.sender, msg.value);\n    }    \n    \n     //@notice  Function that allows a move to be submitted\n    function submitMove(address _opponentAddress, bytes32 _hashedMove, uint256 _wager) public onlyIfRunning payable {\n        //@dev  Create a unique hash to store the move\n        bytes32 storeMove = keccak256(abi.encodePacked(msg.sender, _opponentAddress));\n        //@dev  Calculate the hash your opponent has stored his move against (or where he/she will store move)\n        bytes32 storeMoveOpponent = keccak256(abi.encodePacked(_opponentAddress, msg.sender));\n        //@dev  Verify that the balance and msg.value are equal or greater than the wager\n        require(balance[msg.sender].add(msg.value) >= _wager, \"You don't have enough funds to submit a move with this wager\");\n        //@dev  Verify that the password / move combination hasn't been used before\n        require(submits[_hashedMove] == false, \"You have previously used this move / password combination, please use an unique password\");\n        //@dev  Verify that there is no existing move for sender against the opponent\n        require(plays[storeMove].opponent == address(0), \"You have already submitted a move against this opponent\");\n        //@dev  Verify if the opponent already has submitted a move and if they have, that it has the same wager\n        if (plays[storeMoveOpponent].opponent == msg.sender) {\n            require(plays[storeMoveOpponent].wager == _wager, \"You must wager the same amount as your opponent\");\n        }\n        //@dev  Set the new balance\n        balance[msg.sender] = balance[msg.sender].add(msg.value).sub(_wager);\n        //@dev  Store the move\n        Plays storage currentMove = plays[storeMove];\n        currentMove.opponent = _opponentAddress;\n        currentMove.wager = _wager;\n        currentMove.hashedMove = _hashedMove;\n        currentMove.timestampSubmit = now;\n        //@dev  Set the hashed submit to true so it can't be used again\n        submits[_hashedMove] = true;\n        //@dev  Create logs\n        emit LogSubmittedMove(msg.sender, _opponentAddress, _wager);\n    }\n    \n    //Function that allows a player to reveal their move, but only if the opponent has also submitted a move\n    function revealMove(address _opponentAddress, Moves _move, bytes32 _password) public onlyIfRunning {\n        //@dev  Calculate hash against which the move is stored\n        bytes32 msgSenderDetails = keccak256(abi.encodePacked(msg.sender, _opponentAddress));\n        //@dev  Calculate the hash your opponent has stored his move against\n        bytes32 opponentDetails = keccak256(abi.encodePacked(_opponentAddress, msg.sender));\n        //@dev  Verify that msg.sender has stored a move against opponent\n        require(plays[msgSenderDetails].opponent == _opponentAddress, \n        \"There is no move outstanding against opponent which you can reveal\");\n        //@dev  Verify that the opponent has stored a move against msg.sender\n        require(plays[opponentDetails].opponent == msg.sender, \n        \"You can't reveal your move until after your opponent has submitted a move\");\n        //@dev  Verify that the hash is correct\n        require(plays[msgSenderDetails].hashedMove == generateHashedMove(_move, _password), \n        \"The move you are attempting to reveal is not the same as the one you submited\");\n        Plays storage saveMove = plays[msgSenderDetails];\n        saveMove.move = _move;\n        saveMove.timestampReveal = now;\n        //If both players have revealed the move, play the game\n        if (plays[msgSenderDetails].move != Moves.Undefined && plays[opponentDetails].move != Moves.Undefined) {\n            playGame(msgSenderDetails, opponentDetails, _opponentAddress, _move);\n        }\n    }\n\n    function playGame(bytes32 msgSenderDetails, bytes32 opponentDetails, address _opponent, Moves _move) public onlyIfRunning returns (Result resultOfGame) {\n        //@dev  Retrieve opponents move\n        Moves moveOpponent = plays[opponentDetails].move;\n        //@dev  Retrieve wager\n        uint256 wager = plays[msgSenderDetails].wager;\n        //@dev  Call function which will determine which player has the winning move\n        Result gameResult = calculateWin(_move, moveOpponent); \n        //@dev  Delete the moves of both players (so they can play again)\n        delete plays[msgSenderDetails];\n        delete plays[opponentDetails];\n        //@dev  Create logs\n        emit LogPlayedGame(msg.sender, _opponent, gameResult, wager);\n        //@dev  Assign wager to winning players balance and decrease balance of losing player\n        if (gameResult == Result.msgSenderWins) {\n            balance[msg.sender] = balance[msg.sender].add((wager.mul(2)));\n            return Result.msgSenderWins;\n        } else if (gameResult == Result.opponentWins) {\n            balance[_opponent] = balance[_opponent].add((wager.mul(2)));\n            return Result.opponentWins;\n        } else {\n            balance[msg.sender] = balance[msg.sender].add(wager);\n            balance[_opponent] = balance[_opponent].add(wager);\n            return Result.Draw;\n        }\n    }\n    \n    //@notice  Function that allows a played move to be rescinded when opponent doesn't submit move within a week\n    //@notice  or when move doesn't get revealed within a week of msg.sender revealing\n    function rescindMove(address _opponent) public onlyIfRunning {\n        //@dev  Calculate hash against which the move is stored\n        bytes32 msgSenderDetails = keccak256(abi.encodePacked(msg.sender, _opponent));\n        //@dev  Calculate the hash your opponent has stored his move against\n        bytes32 opponentDetails = keccak256(abi.encodePacked(_opponent, msg.sender));\n        //@dev  Verify there is a move stored against opponent\n        require(plays[msgSenderDetails].opponent == _opponent, \"There is no move outstanding against opponent\");\n        //@dev  If the opponent has not submitted a move\n        if (plays[opponentDetails].opponent == address(0)) {\n            //@dev Then verfiy if the expiry period has been exceded and if it has, call returnWager function\n            require(plays[msgSenderDetails].timestampSubmit.add(gameExpiry) < now, \"Submission expiry not exceeded yet\"); {\n            returnWager(msgSenderDetails, _opponent);\n            } \n        }    \n        //@dev  If the opponent has submitted a move\n        else if (plays[opponentDetails].opponent == msg.sender) {\n            //@dev  And if message sender has not revealed his/her move yet, then don't allow to rescind\n            if (plays[msgSenderDetails].move == Moves.Undefined) {\n                require(plays[msgSenderDetails].move != Moves.Undefined, \n                \"You and your opponent have both submitted a move, but not revealed, you can't rescind until after you have revealed and your opponent has expired his/her reveal period\");\n            //@dev  If the message sender has revealed a move and the opponent hasn't, allow to rescind after expiry has been reached\n            } else if (plays[msgSenderDetails].move != Moves.Undefined) {\n                require(plays[opponentDetails].move == Moves.Undefined && plays[msgSenderDetails].timestampReveal.add(gameExpiry) < now, \n                \"Your opponent still has time to reveal his/her move before you can rescind\");\n                returnWager(msgSenderDetails, _opponent);\n            }\n        }\n    }\n     \n    //@notice  Function that allows a player to withdraw his/her balance\n    function withdrawBalance(uint256 amount) public onlyIfNotPaused { \n        //@dev  Verify that the amount is positive\n        require(amount > 0, \"You must withdraw a positive amount\");\n        //@dev  Verify that the amount is not greater than the balance\n        require(balance[msg.sender] >= amount, \"You don't have a high enough balance\");\n        //@dev  Decrease balance \n        balance[msg.sender] = balance[msg.sender].sub(amount);\n        //@dev  Transfer balance to sender\n        address(msg.sender).transfer(amount);\n        //@dev  Create logs\n        emit LogWithdrawBalance(msg.sender, amount);\n    }    \n    \n    //@notice  Retrieves contract balance - just for Remix\n    function getContractBalance() public view returns (uint256) {\n        return address(this).balance;\n    }\n    \n    //Function that allows a move with password to be hashed\n    function generateHashedMove(Moves _move, bytes32 _password) view public onlyIfRunning returns (bytes32) {\n        //Verify that the move and password have been populated\n        require(_move == Moves.Rock || _move == Moves.Paper || _move == Moves.Scissors, \"You must enter either Rock, Paper or Scissors\");\n        require(_password != 0, \"Entering a password is mandatory\");\n        return keccak256(abi.encodePacked(this, msg.sender, _move, _password));\n    }\n    \n    //@notice  Function that calculates the winning move\n    function calculateWin(Moves _move1, Moves _move2) pure internal returns (Result result) {\n        if (_move1 == _move2) {\n            return Result.Draw;\n        } else if (_move1 == Moves.Rock && _move2 == Moves.Paper) {\n            return Result.opponentWins;\n        } else if (_move1 == Moves.Paper && _move2 == Moves.Scissors) {\n            return Result.opponentWins;\n        } else if (_move1 == Moves.Scissors && _move2 == Moves.Rock) {\n            return Result.opponentWins;\n        } else if (_move1 == Moves.Paper && _move2 == Moves.Rock) {\n            return Result.msgSenderWins;\n        } else if (_move1 == Moves.Scissors && _move2 == Moves.Paper) {\n            return Result.msgSenderWins;\n        } else if (_move1 == Moves.Rock && _move2 == Moves.Scissors) {\n            return Result.msgSenderWins;\n        }\n    }\n    \n    //@notice  Function that returns wagers from rescinded moves to message sender       \n    function returnWager(bytes32 _msgSenderDetails, address _opponent) internal {\n        //@dev  Delete the move\n        uint256 wager = plays[_msgSenderDetails].wager;\n        delete plays[_msgSenderDetails];\n        //@dev  Return the wager to senders balance\n        balance[msg.sender] = balance[msg.sender].add(wager);\n        //@dev  Create logs\n        emit LogRescindedMove(msg.sender, _opponent, wager);\n    }\n\n}",
  "sourcePath": "/home/richard/workspace/RockPaperScissors/contracts/RockPaperScissors.sol",
  "compiler": {
    "name": "solc",
    "version": "0.5.6+commit.b259423e.Emscripten.clang"
  },
  "schemaVersion": "3.0.3",
  "updatedAt": "2019-04-02T04:46:56.863Z",
  "devdoc": {
    "methods": {}
  },
  "userdoc": {
    "methods": {}
  }
}