{
  "contractName": "Stoppable",
  "abi": [
    {
      "constant": true,
      "inputs": [],
      "name": "getOwner",
      "outputs": [
        {
          "name": "",
          "type": "address"
        }
      ],
      "payable": false,
      "stateMutability": "view",
      "type": "function"
    },
    {
      "constant": false,
      "inputs": [
        {
          "name": "_newOwner",
          "type": "address"
        }
      ],
      "name": "changeOwner",
      "outputs": [],
      "payable": false,
      "stateMutability": "nonpayable",
      "type": "function"
    },
    {
      "constant": true,
      "inputs": [],
      "name": "state",
      "outputs": [
        {
          "name": "",
          "type": "uint8"
        }
      ],
      "payable": false,
      "stateMutability": "view",
      "type": "function"
    },
    {
      "inputs": [],
      "payable": false,
      "stateMutability": "nonpayable",
      "type": "constructor"
    },
    {
      "anonymous": false,
      "inputs": [
        {
          "indexed": true,
          "name": "sender",
          "type": "address"
        },
        {
          "indexed": true,
          "name": "newState",
          "type": "uint8"
        }
      ],
      "name": "LogSetState",
      "type": "event"
    },
    {
      "anonymous": false,
      "inputs": [
        {
          "indexed": true,
          "name": "oldOwner",
          "type": "address"
        },
        {
          "indexed": true,
          "name": "newOwner",
          "type": "address"
        }
      ],
      "name": "LogChangeOwner",
      "type": "event"
    },
    {
      "constant": false,
      "inputs": [
        {
          "name": "newState",
          "type": "uint8"
        }
      ],
      "name": "setState",
      "outputs": [],
      "payable": false,
      "stateMutability": "nonpayable",
      "type": "function"
    }
  ],
  "bytecode": "0x608060405234801561001057600080fd5b50336000806101000a81548173ffffffffffffffffffffffffffffffffffffffff021916908373ffffffffffffffffffffffffffffffffffffffff16021790555060008060146101000a81548160ff0219169083600281111561006f57fe5b0217905550610666806100836000396000f3fe608060405234801561001057600080fd5b5060043610610069576000357c01000000000000000000000000000000000000000000000000000000009004806356de96db1461006e578063893d20e81461009f578063a6f9dae1146100e9578063c19d93fb1461012d575b600080fd5b61009d6004803603602081101561008457600080fd5b81019080803560ff169060200190929190505050610159565b005b6100a76102f1565b604051808273ffffffffffffffffffffffffffffffffffffffff1673ffffffffffffffffffffffffffffffffffffffff16815260200191505060405180910390f35b61012b600480360360208110156100ff57600080fd5b81019080803573ffffffffffffffffffffffffffffffffffffffff16906020019092919050505061031a565b005b6101356105c2565b6040518082600281111561014557fe5b60ff16815260200191505060405180910390f35b6000809054906101000a900473ffffffffffffffffffffffffffffffffffffffff1673ffffffffffffffffffffffffffffffffffffffff163373ffffffffffffffffffffffffffffffffffffffff16146101fe576040517f08c379a00000000000000000000000000000000000000000000000000000000081526004018080602001828103825260228152602001806106196022913960400191505060405180910390fd5b60028081111561020a57fe5b600060149054906101000a900460ff16600281111561022557fe5b141561027c576040517f08c379a00000000000000000000000000000000000000000000000000000000081526004018080602001828103825260438152602001806105d66043913960600191505060405180910390fd5b80600060146101000a81548160ff0219169083600281111561029a57fe5b02179055508060028111156102ab57fe5b3373ffffffffffffffffffffffffffffffffffffffff167f8443aae512b274bfa1e5d65661bd8f0b4ffbc66eee3556711cce411fcf30478460405160405180910390a350565b60008060009054906101000a900473ffffffffffffffffffffffffffffffffffffffff16905090565b6000809054906101000a900473ffffffffffffffffffffffffffffffffffffffff1673ffffffffffffffffffffffffffffffffffffffff163373ffffffffffffffffffffffffffffffffffffffff16146103bf576040517f08c379a00000000000000000000000000000000000000000000000000000000081526004018080602001828103825260228152602001806106196022913960400191505060405180910390fd5b600073ffffffffffffffffffffffffffffffffffffffff168173ffffffffffffffffffffffffffffffffffffffff161415610462576040517f08c379a00000000000000000000000000000000000000000000000000000000081526004018080602001828103825260138152602001807f4e6f20616464726573732070726f76696465640000000000000000000000000081525060200191505060405180910390fd5b6000809054906101000a900473ffffffffffffffffffffffffffffffffffffffff1673ffffffffffffffffffffffffffffffffffffffff168173ffffffffffffffffffffffffffffffffffffffff161415610525576040517f08c379a00000000000000000000000000000000000000000000000000000000081526004018080602001828103825260208152602001807f43757272656e74206f776e65722063616e2774206265206e6577206f776e657281525060200191505060405180910390fd5b806000806101000a81548173ffffffffffffffffffffffffffffffffffffffff021916908373ffffffffffffffffffffffffffffffffffffffff1602179055508073ffffffffffffffffffffffffffffffffffffffff163373ffffffffffffffffffffffffffffffffffffffff167f96b36bedce75759b139551b10b3d2e1e863dbbfbdc30f9f9e374bb24431d5da260405160405180910390a350565b600060149054906101000a900460ff168156fe54686520636f6e747261637420697320646561637469766174656420616e642063616e2774206265206d616465206f7065726174696f6e616c206f72207061757365644f6e6c79206f776e65722063616e20706572666f726d207468697320616374696f6ea165627a7a72305820287ca110db9af74fc03ae3bc9a1cddc297eed8cfcdb9f6672a2a631e542909b30029",
  "source": "pragma solidity 0.5.6;\n\nimport  \"./Owned.sol\";\n\ncontract Stoppable is Owned {\n     \n    //State variable \n    rockPapersScissorsState public state; \n    \n    //Defining the possible states of the contract\n    enum rockPapersScissorsState {\n        Operational,\n        Paused,\n        Deactivated\n    }\n    \n    //Constructor, setting initial state upon contract creation\n    constructor() public {\n       state = rockPapersScissorsState.Operational;\n    }  \n    \n    //Event logs for when a state changes\n    event LogSetState(address indexed sender, rockPapersScissorsState indexed newState);\n    \n    //Modifiers\n    modifier onlyIfRunning {\n        require(state == rockPapersScissorsState.Operational, \"The contract is not operational\");\n        _;\n    }\n    \n    modifier onlyIfNotPaused {\n        require(state != rockPapersScissorsState.Paused, \"The contract is paused and can't be interacted with\");\n        _;\n    }\n    \n    //Function that allows owner to change the state of the contract\n    function setState(rockPapersScissorsState newState) public onlyOwner {\n        //Verify if the state is Deactivated, if so, don't allow update to the state;\n        require(state != rockPapersScissorsState.Deactivated, \"The contract is deactivated and can't be made operational or paused\");\n        //Set the state of the Contract\n        state = newState;\n        //Create logs\n        emit LogSetState(msg.sender, newState);\n    }\n}",
  "sourcePath": "/home/richard/workspace/RockPaperScissors/contracts/Stoppable.sol",
  "compiler": {
    "name": "solc",
    "version": "0.5.6+commit.b259423e.Emscripten.clang"
  },
  "schemaVersion": "3.0.3",
  "updatedAt": "2019-04-02T02:37:25.381Z",
  "devdoc": {
    "methods": {}
  },
  "userdoc": {
    "methods": {}
  }
}