{
  "contractName": "Stoppable",
  "abi": [
    {
      "constant": true,
      "inputs": [],
      "name": "getOwner",
      "outputs": [
        {
          "name": "",
          "type": "address"
        }
      ],
      "payable": false,
      "stateMutability": "view",
      "type": "function"
    },
    {
      "constant": false,
      "inputs": [
        {
          "name": "_newOwner",
          "type": "address"
        }
      ],
      "name": "changeOwner",
      "outputs": [],
      "payable": false,
      "stateMutability": "nonpayable",
      "type": "function"
    },
    {
      "constant": true,
      "inputs": [],
      "name": "state",
      "outputs": [
        {
          "name": "",
          "type": "uint8"
        }
      ],
      "payable": false,
      "stateMutability": "view",
      "type": "function"
    },
    {
      "inputs": [],
      "payable": false,
      "stateMutability": "nonpayable",
      "type": "constructor"
    },
    {
      "anonymous": false,
      "inputs": [
        {
          "indexed": true,
          "name": "sender",
          "type": "address"
        },
        {
          "indexed": true,
          "name": "newState",
          "type": "uint8"
        }
      ],
      "name": "LogSetState",
      "type": "event"
    },
    {
      "anonymous": false,
      "inputs": [
        {
          "indexed": true,
          "name": "oldOwner",
          "type": "address"
        },
        {
          "indexed": true,
          "name": "newOwner",
          "type": "address"
        }
      ],
      "name": "LogChangeOwner",
      "type": "event"
    },
    {
      "constant": false,
      "inputs": [
        {
          "name": "newState",
          "type": "uint8"
        }
      ],
      "name": "setState",
      "outputs": [],
      "payable": false,
      "stateMutability": "nonpayable",
      "type": "function"
    }
  ],
  "bytecode": "0x608060405234801561001057600080fd5b50600080546001600160a01b0319163317600160a01b60ff021916815561040990819061003d90396000f3fe608060405234801561001057600080fd5b506004361061004c5760003560e01c806356de96db14610051578063893d20e814610073578063a6f9dae114610097578063c19d93fb146100bd575b600080fd5b6100716004803603602081101561006757600080fd5b503560ff166100e9565b005b61007b6101fe565b604080516001600160a01b039092168252519081900360200190f35b610071600480360360208110156100ad57600080fd5b50356001600160a01b031661020d565b6100c5610368565b604051808260028111156100d557fe5b60ff16815260200191505060405180910390f35b6000546001600160a01b0316331461013557604051600160e51b62461bcd0281526004018080602001828103825260228152602001806103bc6022913960400191505060405180910390fd5b6002600054600160a01b900460ff16600281111561014f57fe5b141561018f57604051600160e51b62461bcd0281526004018080602001828103825260438152602001806103796043913960600191505060405180910390fd5b6000805482919074ff00000000000000000000000000000000000000001916600160a01b8360028111156101bf57fe5b02179055508060028111156101d057fe5b60405133907f8443aae512b274bfa1e5d65661bd8f0b4ffbc66eee3556711cce411fcf30478490600090a350565b6000546001600160a01b031690565b6000546001600160a01b0316331461025957604051600160e51b62461bcd0281526004018080602001828103825260228152602001806103bc6022913960400191505060405180910390fd5b6001600160a01b0381166102b75760408051600160e51b62461bcd02815260206004820152601360248201527f4e6f20616464726573732070726f766964656400000000000000000000000000604482015290519081900360640190fd5b6000546001600160a01b038281169116141561031d5760408051600160e51b62461bcd02815260206004820181905260248201527f43757272656e74206f776e65722063616e2774206265206e6577206f776e6572604482015290519081900360640190fd5b600080546001600160a01b0319166001600160a01b0383169081178255604051909133917f96b36bedce75759b139551b10b3d2e1e863dbbfbdc30f9f9e374bb24431d5da29190a350565b600054600160a01b900460ff168156fe54686520636f6e747261637420697320646561637469766174656420616e642063616e2774206265206d616465206f7065726174696f6e616c206f72207061757365644f6e6c79206f776e65722063616e20706572666f726d207468697320616374696f6ea165627a7a72305820ef2c940ec805f4c7842e958eb5d8d545e6827e29e242c441b7baba56cb19582b0029",
  "source": "pragma solidity ^0.5.8;\n\nimport  \"./Owned.sol\";\n\ncontract Stoppable is Owned {\n\n    //State variable\n    rockPapersScissorsState public state;\n\n    //Defining the possible states of the contract\n    enum rockPapersScissorsState {\n        Operational,\n        Paused,\n        Deactivated\n    }\n\n    //Constructor, setting initial state upon contract creation\n    constructor() public {\n       state = rockPapersScissorsState.Operational;\n    }\n\n    //Event logs for when a state changes\n    event LogSetState(address indexed sender, rockPapersScissorsState indexed newState);\n\n    //Modifiers\n    modifier onlyIfRunning {\n        require(state == rockPapersScissorsState.Operational, \"The contract is not operational\");\n        _;\n    }\n\n    modifier onlyIfNotPaused {\n        require(state != rockPapersScissorsState.Paused, \"The contract is paused and can't be interacted with\");\n        _;\n    }\n\n    //Function that allows owner to change the state of the contract\n    function setState(rockPapersScissorsState newState) public onlyOwner {\n        //Verify if the state is Deactivated, if so, don't allow update to the state;\n        require(state != rockPapersScissorsState.Deactivated, \"The contract is deactivated and can't be made operational or paused\");\n        //Set the state of the Contract\n        state = newState;\n        //Create logs\n        emit LogSetState(msg.sender, newState);\n    }\n}",
  "sourcePath": "/home/richard/workspace/B9 Eth Dev/RockPaperScissors/contracts/Stoppable.sol",
  "compiler": {
    "name": "solc",
    "version": "0.5.8+commit.23d335f2.Emscripten.clang"
  },
  "schemaVersion": "3.0.14",
  "updatedAt": "2019-08-30T08:16:44.651Z",
  "devdoc": {
    "methods": {}
  },
  "userdoc": {
    "methods": {}
  }
}